:020000040800F2
:1000000000380020090100081D0F00088D0E0008AF
:10001000190F0008DB030008491C0008000000005D
:10002000000000000000000000000000BB130008FA
:100030008106000800000000ED0F0008811600088E
:100040002301000823010008230100082301000800
:1000500023010008230100082301000823010008F0
:1000600023010008230100082301000823010008E0
:1000700023010008230100082301000823010008D0
:1000800023010008230100082301000823010008C0
:1000900023010008230100082301000823010008B0
:1000A00023010008230100082301000823010008A0
:1000B000E5160008230100082301000823010008B9
:1000C0002301000823010008230100082301000880
:1000D0002301000811190008ED1900082301000888
:1000E000230100082301000823010008DFF80CD0D9
:1000F00000F0E0F800480047C12600080038002062
:1001000080F308887047000006488047064800478B
:10011000FEE7FEE7FEE7FEE7FEE7FEE7FEE7FEE7B7
:10012000FEE7FEE785160008ED000008D2B201E008
:1001300000F8012B491EFBD270470022F6E710B5EC
:1001400013460A4604461946FFF7F0FF204610BD45
:1001500030B505462A460B4612F8010B13F8014B41
:1001600008B1A042F8D01CB1002802D06D1CF1E704
:10017000284630BD10B5044604E00B7800F8013B7A
:1001800003B1491C521EF8D2204610BD421C10F883
:10019000011B0029FBD1801A704710B5002200E036
:1001A000521C835C8C5CA34201D1002BF8D1D8B2E5
:1001B000E1B2401A10BD034611F8012B00F8012BE3
:1001C000002AF9D11846704770B5064601F0E0FEE6
:1001D000046805460A220021304600F033F82C60FE
:1001E00070BD2DE9F05F0546002092469B4688468B
:1001F0000646814640241BE02846414647462246A3
:1002000000F079F853465A46C01A914110D311466E
:100210001846224600F060F82D1A67EB01084F4699
:1002200022460120002100F057F817EB00094E414B
:10023000201EA4F10104DFDC484631462A4643462D
:10024000BDE8F09F2DE9F04791460F4680460446F1
:10025000002614F8015B2DB100F05EF80068405DE7
:10026000C007F6D12B2D02D02D2D18D0641E4A4682
:100270003946204600F054F827B13968A14201D12F
:10028000C7F8008071054FF002040BD540420028EA
:1002900003DD01F07DFE0460A007BDE8F08746F4B1
:1002A0008066E4E70028F8DA01F072FE04606FF07F
:1002B0000040F2E7064C074D06E0E06840F001031D
:1002C00094E8070098471034AC42F6D3FFF712FFCA
:1002D000F432000814330008202A04DB203A00FA24
:1002E00002F1002070479140C2F1200320FA03F38D
:1002F000194390407047202A04DB203A21FA02F08B
:100300000021704721FA02F3D040C2F1200291404F
:10031000084319467047000000487047F032000853
:100320002DE9F05F82460078002715468B460AF1DA
:100330000104B946302801D09DB113E014F8010B37
:100340000127782803D0582801D045B10AE00DB123
:10035000102D07D10027102514F8010B02E0082505
:1003600000E00A250026B0460EE005FB080005FB6C
:1003700006F1012701EB10461FFA80F8B6F5803F21
:1003800000D3B94614F8010B294600F018F80028EC
:10039000EBDABBF1000F05D00FB1641E00E054464C
:1003A000CBF80040B9F1000F06D001F0F1FD0221B9
:1003B0000160C81EBDE8F09F48EA0640FAE73A2807
:1003C00000D2303820F02002412A01D3A2F13700B8
:1003D000884201D34FF0FF30704700BFFEE70000B6
:1003E00010B586B0002400BF12E003A802F0C8FBDD
:1003F00010B9002006B010BD52A103A8FFF7CDFE32
:1004000000B907E04FF47A7002F00CF8601CC4B237
:100410001E2CEADB00BF1E2C01DB0020EAE74BA00C
:1004200001F092FD4FF47A7001F0FCFF00240FE020
:100430004A4802F0A3F808B90020DBE747480078F3
:1004400000B107E04FF47A7001F0ECFF601CC4B219
:100450001E2CEDDB00BF1E2C01DB0020CAE73F484D
:1004600001783FA001F070FD4FF47A7001F0DAFFDF
:10047000002415E001A902A802F0AEFB08B9002093
:10048000B8E79DF80400012803D09DF80400052872
:1004900000D107E04FF47A7001F0C4FF601CC4B2D1
:1004A0001E2CE7DB00BF1E2C01DB0020A2E72FA0E3
:1004B00001F04AFD4FF47A7001F0B4FF002410E01F
:1004C000684602F02FFB08B9002093E79DF8000072
:1004D000012800D107E04FF47A7001F0A3FF601CFF
:1004E000C4B21E2CECDB00BF1E2C01DB002081E718
:1004F00022A001F029FD012002F030FC08B9002003
:1005000078E722A001F020FD26A002F065FC08B9E2
:1005100000206FE725A001F017FD02F019F808B9D7
:10052000002067E727A001F00FFD2A4801F0DEFF59
:1005300008B900205EE7274927A001F005FD01204A
:1005400058E7000052454144590000004350494ECD
:100550003D5245414459210D0A000000540000203D
:10056000637371203D2025640D0A00004352454706
:100570005F737461743D31210D0A0000434741549B
:1005800054203D2031210D0A0000000073415443E6
:1005900049504D4F4445203D2031206973204F4B39
:1005A000210D0A00434D4E4554000000435354545E
:1005B000203D20434D4E4554206973204F4B210D63
:1005C0000A0000004349494352206973204F4B21E0
:1005D0000D0A00006E0E002073696D5F6970203D8A
:1005E0002025730D0A0000000020014908707047A3
:1005F0006E0C00200020034908700349087003496D
:10060000087070474400002045000020460000208C
:1006100010B5002400BF0AE001F058FF20B94FF4E4
:100620007A7001F0FFFE00E003E0601CC4B2282CE9
:10063000F2DB00BF282C01DB002010BD06A001F07A
:1006400083FC41F2883107A002F0F4FA10B108A04F
:1006500001F07AFC0120F0E74154206973204F4BF0
:10066000210D0A00534D532052656164790000004A
:10067000534D53205265616479210D0A000000003A
:100680007047000030B5044604254FF4302000F0D8
:100690006FF80546042D17D10C48006940F00200A0
:1006A0000A49086108464461006940F04000086159
:1006B0004FF4302000F05CF805460448006941F62C
:1006C000FD71084001490861284630BD0020024004
:1006D00004200B49C96801F0010109B101200EE0B5
:1006E0000749C96801F0040109B1022007E0044983
:1006F000C96801F0100109B1032000E0042070472F
:10070000002002400348006940F080000149086170
:10071000704700000020024070B504460D460426D4
:10072000F00200F025F80646042E11D109480069B0
:1007300040F00100074908612580F00200F018F838
:1007400006460448006941F6FE7108400149086107
:10075000304670BD0020024002480349486003480B
:10076000486070472301674500200240AB89EFCD08
:1007700000B502460423FFF7ABFF034603E0FFF793
:10078000A7FF0346521E012B01D1002AF7D102B95F
:100790000523184600BD000010B504463DA33FA246
:1007A0000121032002F0C2FC08B9002010BD3DA0C9
:1007B00001F0CAFB3FA341A20121032002F0B6FCD5
:1007C00008B90020F2E73EA001F0BEFB0121084677
:1007D00002F0D6FC08B90020E8E73DA001F0B4FB28
:1007E000012002F017FB08B90020DFE73CA001F070
:1007F000ABFB40A002F052FC08B90020D6E741A0B4
:1008000001F0A2FB44A002F06DFC08B90020CDE786
:1008100043A001F099FB47A002F01CFC08B900209E
:10082000C4E746A001F090FB49A002F0C7FB08B95D
:100830000020BBE74AA001F087FB4FA002F0E4FBD9
:1008400008B90020B2E74EA001F07EFB0021012094
:1008500002F004FB08B90020A8E74FA001F074FBE8
:100860004FF47A7001F0DEFD4FF48071022002F047
:10087000F5FA08B9002099E74CA001F065FB01F0FA
:10088000A7FE08B9002091E74DA001F05DFB012013
:100890008CE700004750525300000000434F4E5475
:1008A0005950450053415042522031204F4B210DA9
:1008B0000A000000434D4E455400000041504E00D8
:1008C00053415042522032204F4B210D0A0000006C
:1008D00053415042522033204F4B210D0A0000005B
:1008E000734154465450434944206973206F6B0D43
:1008F0000A0000003232322E32392E34302E34319A
:10090000000000007341544654505345525620692C
:1009100073206F6B0D0A0000746573740000000093
:10092000734154465450554E206973206F6B0D0A25
:100930000000000031313131313100007341544643
:1009400054505057206973206F6B0D0A000000004F
:10095000646F776E6C6F61642E74787400000000B1
:100960007341544654504745544E414D4520697398
:10097000206F6B0D0A0000002F76312E302F000003
:10098000734154465450474554504154482069736C
:10099000206F6B0D0A0000007341544654504745C8
:1009A000542031206973206F6B0D0A007341544647
:1009B00054504745542032206973206F6B0D0A0054
:1009C00065415446545051554954206973206F6B0A
:1009D0000D0A000008B503208DF8020001218648A9
:1009E00000F09EF90121854800F09AF90820ADF841
:1009F000000010208DF803006946814800F004F9DA
:100A000008217F4800F0D6F91020ADF800004820FA
:100A10008DF8030069467A4800F0F6F82020ADF81A
:100A2000000010208DF803006946754800F0ECF8CE
:100A30002021734800F0BEF94020ADF800001020DE
:100A40008DF8030069466E4800F0DEF840216C48DE
:100A500000F0B0F98020ADF8000010208DF8030000
:100A60006946674800F0D0F88021654800F0A2F997
:100A70004FF48070ADF8000010208DF80300694637
:100A80005F4800F0C1F84FF480715D4800F092F9C2
:100A90004FF40070ADF8000010208DF80300694697
:100AA000574800F0B1F84FF40071554800F082F952
:100AB0004FF48050ADF8000010208DF803000320A3
:100AC0008DF8020069464E4800F09EF84FF48051C0
:100AD0004B4800F06DF90120ADF8000048208DF87A
:100AE00003006946474800F08FF81020ADF8000079
:100AF0008DF803006946434800F086F82020ADF8E1
:100B0000000010208DF8030069463E4800F07CF894
:100B10004020ADF8000010208DF8030069463948E8
:100B200000F072F88020ADF8000010208DF803006E
:100B30006946344800F068F80120ADF80000102044
:100B40008DF8030069462E4800F05EF801212C481C
:100B500000F02EF90220ADF8000010208DF80300FF
:100B60006946284800F050F80221264800F022F992
:100B70004FF40070ADF8000018208DF803006946AE
:100B8000204800F041F84FF48060ADF800000420E8
:100B90008DF8030069461B4800F036F80420ADF8D4
:100BA000000018208DF803006946164800F02CF864
:100BB0000820ADF8000004208DF8030069461148B4
:100BC00000F022F84FF48060ADF8000002208DF8AC
:100BD000020018208DF803006946094800F014F857
:100BE0004FF40060ADF8000004208DF80300694662
:100BF000034800F009F808BD00043000000230008E
:100C0000000C0140000801402DE9F041024600259A
:100C10000026002000230024002791F803C00CF0D8
:100C20000F0591F803C00CF0100CBCF1000F03D0BD
:100C300091F802C04CEA050591F800C0BCF1000F24
:100C400031D0146800202BE04FF0010C0CFA00F3B7
:100C5000B1F800C00CEA03069E4220D183004FF099
:100C60000F0C0CFA03F7BC4305FA03FC4CEA04042E
:100C700091F803C0BCF1280F06D14FF0010C0CFA1B
:100C800000FCC2F814C00AE091F803C0BCF1480FA0
:100C900005D14FF0010C0CFA00FCC2F810C0401C4A
:100CA0000828D1D31460B1F800C0BCF1FF0F34DDC7
:100CB000546800202EE000F1080C4FF0010808FAFB
:100CC0000CF3B1F800C00CEA03069E4221D1830068
:100CD0004FF00F0C0CFA03F7BC4305FA03FC4CEA87
:100CE000040491F803C0BCF1280F05D100F1080CF1
:100CF00008FA0CF8C2F8148091F803C0BCF1480F50
:100D000007D100F1080C4FF0010808FA0CF8C2F8FE
:100D10001080401C0828CED35460BDE8F08100004C
:100D2000F0B50A46002300240021002500F000460B
:100D3000B6F1004F02D11D4EF16901E01B4E716802
:100D4000C0F3034583B200F44016B6F5401F08D146
:100D500021F07061154E766826F07066134F7E6044
:100D600012E000F48016B6F5801F06D1032606FABD
:100D700005F4A14341F0706106E0460D360103FA27
:100D800006F6B14341F0706122B1460D360103FA17
:100D900006F6314300F00046B6F1004F02D1034E93
:100DA000F16101E0014E7160F0BD00000000014002
:100DB000416170470161704710B504460022114639
:100DC000204600F04BFD10BD70B504460D4616469A
:100DD0000020134908604FF47A7001F023FB0120D2
:100DE0001049C1F880014FF47A7001F01BFB00201C
:100DF0000D4908604FF47A7001F014FBFFF708FC0E
:100E000008B9002070BDFFF7EBFA08B90020F9E738
:100E10002046FFF7C1FC08B90020F3E70120F1E705
:100E200084012142008021428081214210B50120AD
:100E300001F0AEFF18B109A001F086F802E00BA0A6
:100E400001F082F801200F4908604FF47A7001F038
:100E5000E9FA00200C49C1F8840110BD47534D2028
:100E600072657374617274210D0A000047534D203E
:100E700072657374617274204641494C4544210D7A
:100E80000A000000840121420000214200BFFEE769
:100E900008B50121442000F0BBF81C20ADF800008B
:100EA00048208DF8030069460648FFF7ADFE012093
:100EB000ADF8000028208DF8030069460248FFF7CE
:100EC000A3FE08BD001801400008014008B501213B
:100ED000482000F09DF82020ADF8000010208DF88B
:100EE000030003208DF8020069460948FFF78CFED5
:100EF00020210748FFF75EFF2020ADF8000069467B
:100F00000448FFF781FE20210248FFF753FF08BD88
:100F1000000C01400018014000BFFEE7704708B513
:100F20004FF4C06000F058F81C208DF8000000203D
:100F30008DF8010002208DF8020001208DF80300D9
:100F4000684600F011F81D208DF8000001208DF892
:100F5000010000208DF8020001208DF80300684692
:100F600000F002F808BD000070B5002100230F2238
:100F7000C47804B3154C246804F4E064C4F5E06458
:100F8000210AC1F10403CA40447804FA03F18478C9
:100F90001440214309010E4C0678A155047804F051
:100FA0001F050124AC4005786D11AD0005F1E02569
:100FB000C5F8004109E0047804F01F050124AC40A5
:100FC000044D0678761145F8264070BD0CED00E022
:100FD00000E400E080E100E002490143024A1160C0
:100FE000704700000000FA050CED00E070470000BB
:100FF00029B1064AD2690243044BDA6104E0034A8C
:10100000D2698243014BDA61704700000010024050
:1010100029B1064A92690243044B9A6104E0034AEB
:1010200092698243014B9A617047000000100240B0
:1010300030B500210022002400232D4D6D6805F0FD
:101040000C0121B1042905D0082923D105E0294D3F
:10105000056022E0274D05601FE0254D6D6805F411
:101060007012234D6D6805F48034022505EB924221
:101070001CB9214D554305600BE01D4D6D6805F40D
:1010800000351DB11C4D5543056002E0194D554317
:10109000056002E0174D056000BF00BF144D6D688C
:1010A00005F0F0010909154D6B5C0568DD404560F0
:1010B0000F4D6D6805F4E061090A104D6B5C4568E1
:1010C000DD4085600A4D6D6805F46051C90A0B4D1D
:1010D0006B5C4568DD40C560054D6D6805F44041B9
:1010E000890B074D6B5CC568B5FBF3F5056130BD39
:1010F0000010024000127A0000093D002C00002080
:101100003C00002000B587B001210820FFF780FFD8
:1011100001218803FFF76CFF4FF46040ADF8180021
:1011200018208DF81B0003208DF81A0006A9184816
:10113000FFF76AFD4FF460411548FFF73BFE0020C2
:10114000ADF804004FF48270ADF806000020ADF851
:1011500008000220ADF80A000120ADF80C004002A2
:10116000ADF80E003820ADF810000020ADF81200E8
:101170000720ADF8140001A9064800F065F8012128
:10118000044800F047F8FF2000F006F807B000BD63
:10119000000C01400038004070B50546002405E011
:1011A000601CC4B2C82C01DD002070BD02210E48B5
:1011B00000F03CF80028F3D029460B4800F042F834
:1011C000002405E0601CC4B2C82C01DD0020ECE75F
:1011D0000121054800F02AF80028F3D0024800F069
:1011E0002EF8C0B2E1E700000038004010B5044618
:1011F000074800884FF6C77108400549088008462F
:101200000088204308800121014800F003F810BD48
:101210000038004021B1028842F04002028004E020
:1012200002884FF6BF731A400280704702460020C2
:1012300013890B400BB1012000E0002070470146EC
:10124000888970478181704710B50022028802F4B6
:1012500041520B884C8823438C882343CC882343FA
:101260000C8923434C8923438C892343CC89234312
:101270001A430280838B4FF2FF74234083830B8ACF
:10128000038210BD30B503460C461546002207E028
:10129000184600F008F824F812009B1C501C82B27B
:1012A000AA42F5DB30BD0146088870472DE9F05FA2
:1012B00080468A461746B8F1006F02D3334880450E
:1012C00001D3BDE8F09FFFF747FAA8F1006B4FEAA2
:1012D000DB25CBF34909C9F58064A74200DC3C4615
:1012E0004DE04FF0006101EBC5204A142849FFF79B
:1012F000C9FF00260BE009EB0600254931F8100074
:101300004FF6FF71884200D003E0701C86B2A642FF
:10131000F1DB00BFA6421BDA4FF0006101EBC520F4
:10132000FFF7B0F9002608E03AF8160006EB0901CD
:10133000174A22F81100701C86B2A642F4DB4FF067
:10134000006101EBC5204A14114900F023F804E0C4
:1013500022465146404600F01DF8A74200D10FE05A
:101360006D1C4FF000090AEB440AA044381B87B2F9
:10137000B7F5806F02DD4FF4806400E03C46B0E7D3
:1013800000BFFFF7BFF900BF9BE70000000008089F
:101390006E0400202DE9F04105460E461746002454
:1013A00007E036F814102846FFF7B6F9AD1C601CAC
:1013B00084B2BC42F5DBBDE8F08170470648007896
:1013C00000F58060054A1278811AC81701EB905029
:1013D0008012A1EB802070474400002045000020CF
:1013E0000146114A1278501CC21700EB9252921219
:1013F000A0EB82220D4B1B789A420FD00C480A4A70
:1014000012788154084A1278501CC21700EB92528D
:101410009212A0EB8222044B1A7002E00120054ACE
:10142000107001207047000044000020450000209B
:10143000002C0020460000202DE9FC4105460E4608
:10144000012E0AD12C4604E014F8010B0D4909685D
:10145000884720780028F7D111E086B96C462F68BC
:101460003A4609A1204600F07FFD04E014F8010B84
:1014700004490968884720780028F7D100BFBDE8F3
:10148000FC8100004C0000202564000070B504467B
:101490000D4629462046FFF7CFFF0D200349096876
:1014A00088470A2001490968884770BD4C00002020
:1014B0000C4800780C4A1278904202D14FF0FF306D
:1014C00070470A48074A1278815C064A1278501C15
:1014D000C21700EB92529212A0EB8222014B1A70BB
:1014E0000846EDE74500002044000020002C0020C5
:1014F00010B500F001F810BD0CB50020019000906F
:101500003348006840F480303149086000BF3048FB
:10151000006800F4003000900198401C0190009891
:1015200018B90198B0F5A06FF1D12948006800F40E
:10153000003010B10120009001E0002000900098E0
:10154000012843D12348006840F010002149086079
:101550000846006820F0030008600846006840F074
:10156000020008601A484068194948600846406807
:1015700048600846406840F480604860084640681B
:1015800020F47C1048600846406840F4E810486049
:101590000846006840F08070086000BF0C48006892
:1015A00000F000700028F9D00948406820F00300DE
:1015B000074948600846406840F00200486000BFA4
:1015C0000348406800F00C000828F9D10CBD000069
:1015D000001002400020024070B504460D4620462F
:1015E000FEF7D4FD0646A5550021701C215470BDA0
:1015F00070B504460E4631462046FEF7A9FD054665
:1016000015B94FF0FF3070BD281BFCE710B504463C
:101610002046FEF7BBFD10BD2DE9F04107460E4602
:1016200014461D46AC4203DD4FF0FF30BDE8F081AB
:101630003046FEF7ABFDA84202D24FF0FF30F5E78F
:10164000281B421C31193846FEF794FD0021281B47
:10165000401C39540120E9E7042808D14FF0E0216B
:10166000096941F004014FF0E022116107E04FF0F9
:10167000E021096921F004014FF0E0221161704777
:101680007047000010B51348006840F00100114990
:10169000086008464068104908400E4948600846FE
:1016A00000680E4908400B4908600846006820F4AD
:1016B000802008600846406820F4FE0048604FF42F
:1016C0001F008860FFF714FF4FF0006004490860B6
:1016D00010BD0000001002400000FFF8FFFFF6FE02
:1016E00008ED00E010B50121880700F03BF828B1B3
:1016F0000121880700F027F801F0B0FD10BD0EB5FC
:1017000001210846FFF774FC40F2E730ADF8040011
:101710004720ADF800000020ADF80600ADF802004B
:1017200069464FF0804000F037F80121880700F04B
:101730000AF801221146900700F025F801218807D8
:1017400000F004F80EBDCA430282704721B102883E
:1017500042F00102028004E002884FF6FE731A4054
:101760000280704730B50246002000230024158A0D
:1017700005EA0103958905EA010413B10CB10120C2
:1017800000E0002030BD1AB183890B43838102E061
:1017900083898B4383817047002202881D4B9842C6
:1017A0000ED01D4B98420BD0B0F1804F08D01B4B90
:1017B000984205D01A4B984202D01A4B984204D155
:1017C0004FF68F731A404B881A43174B984207D035
:1017D000164B984204D04FF6FF431A40CB881A4369
:1017E00002808B8883850B8803850A4B98420BD037
:1017F000094B984208D00E4B984205D00D4B9842A9
:1018000002D00D4B984201D10B7A038601238382CB
:1018100070470000002C01400034014000040040EB
:1018200000080040000C0040001000400014004080
:1018300000400140004401400048014010B504460A
:1018400000BF4021044800F01BF90028F9D02146D0
:10185000014800F0E2F910BD0038014070B586B0D3
:1018600004460E46154601218803FFF7D1FB0121EE
:101870000420FFF7CDFB4FF40070ADF80400032007
:101880008DF8060018208DF8070001A91E48FFF703
:10189000BBF94FF48060ADF8040004208DF8070018
:1018A00001A91948FFF7B0F925208DF80000F0B222
:1018B0008DF80100E8B28DF8020001208DF80300D8
:1018C0006846FFF751FB02940020ADF80C00ADF81C
:1018D0000E00ADF81000ADF814000C20ADF81200A9
:1018E00002A90A4800F028F9012240F225510748D0
:1018F00000F0FDF80121054800F0B6F8402103484A
:1019000000F09AF806B070BD0008014000380140B0
:1019100010B540F22551084800F0BFF858B140F228
:101920002551054800F091F8034800F071F9C4B260
:101930002046FFF755FD10BD0038014070B586B058
:1019400004460E46154601214804FFF751FB0121CC
:101950000420FFF75DFB0420ADF8040003208DF8A0
:10196000060018208DF8070001A91E48FFF74CF962
:101970000820ADF8040004208DF8070001A91948DB
:10198000FFF742F926208DF80000F0B28DF8010033
:10199000E8B28DF8020001208DF803006846FFF7D9
:1019A000E3FA02940020ADF80C00ADF80E00ADF89B
:1019B0001000ADF814000C20ADF8120002A90A487E
:1019C00000F0BAF8012240F22551074800F08FF8E4
:1019D0000121054800F048F84021034800F02CF8A8
:1019E00006B070BD000801400044004010B540F250
:1019F00025510E4800F051F8B0B140F225510B4886
:101A000000F023F8094800F003F9C4B20848008840
:101A1000B0F5806F08DA074805490988445404483E
:101A20000088401C0249088010BD000000440040AE
:101A3000260000200010002001F40072B2F5007FA3
:101A400000D100BFCA430280704710B500220023B6
:101A500040F66A14A14200D100BF0A12012494404A
:101A6000A3B2DC43048010BD21B1828942F400524C
:101A7000828104E082894DF6FF731A4082817047AB
:101A800002460020B1F5007F00D100BF13880B4053
:101A90000BB1012000E00020704770B50246002421
:101AA00000230025002040F66A16B14200D100BF95
:101AB000C1F3421501F01F03012606FA03F3012DBD
:101AC00002D19689334006E0022D02D1168A3340B6
:101AD00001E0968A33400C12012606FA04F41688B7
:101AE000344013B10CB1012000E0002070BDF0B50E
:101AF0000346002400260025002040F66A17B9425C
:101B000000D100BF1846C1F3421401F01F0601279F
:101B100007FA06F5012C01D10C3004E0022C01D1AA
:101B2000103000E014301AB107682F43076002E05C
:101B30000768AF430760F0BD2DE9F04786B0054662
:101B40000E460024A24600BFA1460027B08900B17E
:101B500000BF2F462C8A4CF6FF700440F0880443E7
:101B60002C82AC894EF6F3100440B08831890843CA
:101B7000718908430443AC81AC8A4FF6FF400440AE
:101B8000B0890443AC8201A8FFF752FA1F4887428C
:101B900002D1DDF810A001E0DDF80CA0A88900F466
:101BA000004040B10AEBCA0000EB0A10316849005E
:101BB000B0FBF1F807E00AEBCA0000EB0A1031684D
:101BC0008900B0FBF1F86420B8FBF0F004012009B3
:101BD000642101FB1089A88900F4004040B1322043
:101BE00000EBC900B0FBF1F000F00700044308E08F
:101BF000322000EB09106421B0FBF1F000F00F007F
:101C000004432C8106B0BDE8F08700000038014095
:101C100001468888C0F308007047C1F3080282803B
:101C20007047000070B506460C461546044804602F
:101C300004480560304602490968884770BD0000C5
:101C4000480000204C00002000BFFEE710B504460D
:101C5000214610A000F078F9240300F017F900F0F5
:101C6000AFF800200D4908602020FFF795FAC4F373
:101C70000740FFF791FAC4F30720FFF78DFAE0B2AF
:101C8000FFF78AFA01200649C1F8AC0100F098F884
:101C900010BD000066653A25780D0A00AC012142AE
:101CA0000000214208B501210420FFF7B1F94FF4EB
:101CB0000060ADF8000010208DF8030003208DF8BF
:101CC000020069460A48FEF79FFF4FF4006108488A
:101CD000FFF770F8012007490860FFF713FA0020AA
:101CE000FFF784FA00F032F80349088008BD0000CD
:101CF00000080140AC0121421C0000202DE9F04108
:101D000006460C46174600200F4908600320FFF7DF
:101D100043FAC4F30740FFF73FFAC4F30720FFF785
:101D20003BFAE0B2FFF738FA002505E0FF20FFF7A5
:101D300033FA7055681C85B2BD42F7DB01200249B9
:101D40000860BDE8F0810000AC01214210B500241C
:101D500000200E4908609020FFF71EFA0020FFF7D0
:101D60001BFA0020FFF718FA0020FFF715FAFF20F2
:101D7000FFF712FA44EA0024FF20FFF70DFA0443AC
:101D800001200349C1F8AC01204610BDAC0121423D
:101D90000000214210B500240020074908600520FA
:101DA000FFF7FAF9FF20FFF7F7F90446012003498E
:101DB000C1F8AC01204610BDAC0121420000214217
:101DC00010B500BFFFF7E6FF00F001000028F9D1D1
:101DD00010BD00002DE9F05F81460F461646DFF882
:101DE000A8B04FEA1738C7F30B0ACAF58054A642C9
:101DF00000DC344644E04FEA08314FF48052584644
:101E0000FFF77CFF002508E00AEB05001BF8000047
:101E1000FF2800D003E0681C85B2A542F4DB00BFB8
:101E2000A54216DA4046FFF711FF002507E019F832
:101E3000050005EB0A010BF80100681C85B2A542FC
:101E4000F5DB4FEA08314FF48052584600F02EF887
:101E500004E022463946484600F028F8A64200D160
:101E60000FE008F101084FF0000AA1442744301B9D
:101E700086B2B6F5805F02DD4FF4805400E0344650
:101E8000B9E700BFBDE8F09F0014002010B50020A6
:101E9000044908600620FFF77FF901200249C1F8D4
:101EA000AC0110BDAC012142000021422DE9F041FE
:101EB00007460E461446F0B2C0F58075AC4200DC11
:101EC000254612E02A463146384600F013F8AC4267
:101ED00000D10BE02F442E44601B84B2B4F5807F08
:101EE00002DD4FF4807500E02546EBE700BFBDE85A
:101EF000F08100002DE9F04106460C461746FFF739
:101F0000C5FF00200F4908600220FFF745F9C4F320
:101F10000740FFF741F9C4F30720FFF73DF9E0B2AE
:101F2000FFF73AF9002504E0705DFFF735F9681C0A
:101F300085B2BD42F8DB012002490860FFF740FF8F
:101F4000BDE8F081AC0121420FB4054B10B503A9E7
:101F5000044A029800F030F810BC5DF814FB000051
:101F600011260008280000200FB4084B10B504A962
:101F700002AA039800F020F8044602A9002000F00D
:101F80004CFA204610BC5DF814FB00001B2400082E
:101F9000004870476000002002E008C8121F08C116
:101FA000002AFAD170477047002001E001C1121FDA
:101FB000002AFBD1704700002DE9FF4F8DB00F467E
:101FC0000546002606E025280BD0DDE90F129047D4
:101FD0006D1C761C28780028F5D111B03046BDE87C
:101FE000F08F0024A246A1460122EC4900E0044300
:101FF00015F8013F203B02FA03F00842F7D1287898
:102000002A2810D06FF02F022878A0F1300109297A
:1020100014D80AEB8A0102EB410144F0020400EB00
:10202000010A6D1CF0E701CF5FEA000A03D544F412
:102030000054CAF1000A44F002046D1C28782E28CE
:1020400017D115F8010F44F004042A280ED06FF0C0
:102050002F022878A0F1300109290AD809EB89015B
:1020600002EB410100EB01096D1CF2E757F8049BFC
:102070006D1C28786C280FD006DC4C2817D06828F7
:102080000DD06A2814D104E0742810D07A280FD11A
:102090000DE044F400140AE044F4801401E044F438
:1020A00040146978814202D104F580146D1C6D1CC6
:1020B0002A786E2A1FD00CDC632A31D004DC002A77
:1020C0008BD0582A11D1A3E0642A68D0692A0CD198
:1020D00065E0732A2ED004DC6F2A73D0702A04D1F5
:1020E0009BE0752A6FD0782A6ED01046DDE90F127A
:1020F0009047761C50E1C4F30250022806D0032812
:1021000009D0042801CF09D0066045E101CFF117BD
:10211000C0E9006140E101CF06803DE106703BE18E
:1021200017F8040B8DF8000000208DF80100EB4635
:10213000012003E057F804BB4FF0FF3061074FF078
:10214000000102D40DE008F10101884649450FDA8B
:102150008045F8DB1BF808100029F4D108E008F1ED
:10216000010188468142FADB1BF808100029F6D1EC
:10217000DDE90F23AAEB08008146214600F036F97D
:10218000304400EB080604E0DDE90F121BF8010BF8
:102190009047B8F10108F7D221464846F7E00A21F6
:1021A000C4F302534FF0000B0891022B04D001CF6F
:1021B000C117032B09D00AE0FF1D27F00707F7E836
:1021C000020108E032E01FE020E000B2C117042B5A
:1021D00001D140B2C117031E71F1000307DA4FF0BD
:1021E000000CD0EB0C006CEB01012D2302E0230569
:1021F00004D52B238DF82430012303E0E30701D01D
:102200002023F7E7984658E00A2110E010210EE05D
:1022100010204FF0000B08900CE010214FF0000B45
:1022200044F004044FF00809089103E008214FF03E
:10223000000B0891C4F30253022B04D001CF0021FC
:10224000032B06D006E0FF1D27F00707F7E8020181
:1022500003E080B2042B00D1C0B24FF00008230786
:102260002BD5702A07D0DDF820C08CF0100C5CEA6A
:102270000B0C05D00EE040238DF82430012308E03C
:1022800050EA010306D030238DF824308DF8252044
:1022900002239846DDF820C08CF0080C5CEA0B0C99
:1022A0000BD150EA010301D1630706D530238DF825
:1022B00024304FF00108A9F10109582A04D038A2AE
:1022C0000B9208AA0A920BE03AA2F9E75B46089A39
:1022D000FDF787FF0B9B9B5C0A9A521E0A921370B4
:1022E00050EA0102F2D10A98ADEB000000F1200B98
:1022F000600702D524F4803401E04FF00109D9458C
:1023000002DDA9EB0B0000E0002000EB0B014144D3
:102310000890AAEB010AE00306D4DDE90F23214669
:10232000504600F063F806444FF0000908E009A9A0
:1023300011F80900DDE90F12904709F10109761C37
:10234000C145F4DBE0030CD5DDE90F2321465046FF
:1023500000F04CF8064404E0DDE90F12302090470D
:10236000761C0899481E08900029F5DC08E00A98B8
:102370000A990078491C0A91DDE90F129047761CF2
:10238000BBF10001ABF1010BF1DC21465046DDE968
:102390000F2300F019F806446D1C1BE60928010004
:1023A00030313233343536373839616263646566CB
:1023B000000000003031323334353637383941428D
:1023C00043444546000000002DE9F0410446002545
:1023D0001E461746880404D405E039462020B0473D
:1023E0006D1C641EF9D52846BDE8F0812DE9F04149
:1023F000044600251E469046C80301D5302700E05C
:102400002027880404D505E041463846B0476D1CB6
:10241000641EF9D52846BDE8F0810A68531C0B609C
:102420001070704700B5014600F076FB024600BF11
:1024300000F072FB801A8842FAD900BD10B56FF027
:102440000400FFF709F90A4800680A49B0FBF1F0F7
:10245000094908700846007800EB4001C1EBC01044
:102460004FF6FF7101EAC0000449088010BD00006A
:102470000800002000127A001E000020200000202A
:102480000146114A12884A434FF0E0235A61002264
:102490009A611A46126942F001021A6100BF4FF0B8
:1024A000E022106900F001021AB100F48032002A23
:1024B000F5D04FF0E022126922F001024FF0E02344
:1024C0001A6100229A6170472000002010B500F0C8
:1024D00040FC012103A0FEF7D9FF642102A000F017
:1024E000A9FB10BD415400004F4B000070B50646DB
:1024F00000F02FFC012111A0FEF7C8FF642212A1F9
:10250000124800F0FDFB0DA11048FFF771F80446DA
:10251000601C80B109A0FFF779F8C01C04440B4887
:10252000FDF734FEC51E2B46224608493046FFF70C
:1025300073F8012070BD0020FCE7000041542B43DC
:1025400049465352000000002A0000006E0C002093
:1025500010B500F0FEFB012104A0FEF797FF42F248
:10256000107105A000F066FB10BD000041542B4324
:1025700049494352000000004F4B00003EB504465D
:102580000CB900203EBD00F0E4FB01210AA0FEF7DB
:102590007DFF642001AB0AA20AA100900BA000F00D
:1025A0005FFB05462DB101A8FDF70EFE207001204E
:1025B000E8E70020E6E7000041542B4353510000B8
:1025C0002C0000002B4353513A2000004F4B0000D9
:1025D00000B5ADF5017DFEF707F808A101A8FFF7EA
:1025E000C3FC012101A8FEF751FF4FF47A7106A048
:1025F00000F020FB0DF5017D00BD000041542B468D
:1026000054505155495400004F4B0D0A0000000032
:1026100000BF054A128802F04002002AF9D0C2B277
:10262000014B1B1D1A8070470044004010B5044642
:10263000206807490840B0F1005F08D1606805498B
:1026400008602068FDF75CFD02480068804710BD07
:102650000000FE2F400000202DE9F05F06460F46E7
:1026600090460024B3463D46A1461CE068784FEAF8
:10267000002A287850441FFA80FAAD1C2046611CBD
:102680008CB20E4921F810A0B4F5806F07D1002458
:102690004FF480625846FEF709FE0BF5006B09F116
:1026A00002001FFA80F9C145E0D324B12246034954
:1026B0005846FEF7FBFDBDE8F09F00000024002017
:1026C0001CB54FF0000B0025A9460026AA4600279E
:1026D000FEF725FC904A91494FF4E130FFF7A2FA4A
:1026E000012200214FF4E130FFF728F9FFF707F846
:1026F000FFF7A4FEFEF7EAFBFEF7CAFBFFF7D2FAEC
:10270000FEF768F986A0FFF71FFC01E0FEF78EFBDD
:10271000854A42F2B32185A0FEF756FB0028F5D08A
:1027200015E085A0FFF710FC4FF4FA70FFF7A8FE44
:1027300087A0FFF709FC4FF4FA70FFF7A1FE884865
:10274000006808B9012000E0002085490860FFF713
:10275000FDFA4EF615718842E3D1DBE0814800882E
:1027600000282ED07F480088834527D17D480588E2
:102770004FF0000B00207B4908807BA0FFF7E4FBB3
:1027800029467EA0FFF7E0FB81A0FFF7DDFB2A468C
:1027900000218648FFF71EFB85A0FFF7D5FB4FF40D
:1027A00080618248FDF7C9FC0A2200218748FFF7B3
:1027B000A5FA864986A0FFF7C7FB02E06948B0F892
:1027C00000B008F1010000F0FF080A20FFF758FEF2
:1027D000B8F11E0F10D16248006808B9012000E06E
:1027E00000205F4908604FF00008B9F1000F03D0E6
:1027F000A9F1010000F0FF096F24042C53D1002D32
:102800004CD02E4677A0FFF79FFB0422114601A86B
:10281000FFF774FA9DF8040000909DF805309DF8CC
:1028200006209DF8071074A0FFF78EFB9DF80700A7
:1028300008282FD100274FEA872A25E0B6F5806FB8
:1028400003DC75480660002605E04FF4806072499D
:102850000860A6F58066791C70A0FFF775FB6E48CE
:10286000008882B251467448FFF748FA73490AEB70
:10287000010069490A687049FFF7EEFE4FF4806174
:102880006D48FDF75AFC7F1C002ED7D16CA0FFF7D6
:102890005BFB06E06EA0FFF757FB02E071A0FFF7BD
:1028A00053FB4FF00709032C0AD125B173A0FFF7A2
:1028B0004BFB002502E075A0FFF746FB4FF0070930
:1028C000022C12D177A0FFF73FFB5C48406800F074
:1028D0007F40B0F1006F03D15848FFF7A7FE02E038
:1028E00077A0FFF731FB4FF00709012C12D17BA035
:1028F000FFF72AFB8048406800F07F40B0F1005F9E
:1029000003D17D48FFF792FE02E07CA0FFF71CFB9D
:102910004FF0070922E700003D180008B90D000834
:10292000746573740D0A00000400002034372E39DA
:10293000322E38312E390000573235513332204390
:102940006865636B204661696C6564210D0A00004F
:10295000506C6561736520436865636B210D0A00E7
:102960009481214226000020D3C3BBA7B3CCD0F270
:10297000BDD3CAD5CDEAB3C9210D0A00B4FAC2EB62
:10298000B3A4B6C83A256442797465730D0A000091
:1029900053746172742057726974652057323551CF
:1029A0003132382E2E2E2E0D0A000000001000208D
:1029B0005732355131323820577269746520466973
:1029C0006E6973686564210D0A00000064040020CC
:1029D000666C6173685F627566203D2025730D0A21
:1029E00000000000BFAACABCB8FCD0C2B9CCBCFE73
:1029F0002E2E2E0D0A000000617070636865636BF7
:102A0000203D202530327825303278253032782527
:102A10003032780D0A00000000000020537461720B
:102A200074205265616420573235513132382E2E70
:102A30002E2E2025640D0A006400002000000108ED
:102A4000B9CCBCFEB8FCD0C2CDEAB3C9210D0A0096
:102A5000B7C7464C415348D3A6D3C3B3CCD0F22119
:102A60000D0A0000C3BBD3D0BFC9D2D4B8FCD0C2BA
:102A7000B5C4B9CCBCFE210D0A000000B9CCBCFE27
:102A8000C7E5B3FDCDEAB3C9210D0A00C3BBD3D05E
:102A9000BFC9D2D4C7E5B3FDB5C4B9CCBCFE210DC6
:102AA0000A000000BFAACABCD6B4D0D0464C4153DD
:102AB00048D3C3BBA7B4FAC2EB21210D0A00000022
:102AC000B7C7464C415348D3A6D3C3B3CCD0F22C9E
:102AD000CEDEB7A8D6B4D0D0210D0A00BFAACABC9A
:102AE000D6B4D0D05352414DD3C3BBA7B4FAC2EB36
:102AF00021210D0A0000000000100020B7C753522A
:102B0000414DD3A6D3C3B3CCD0F22CCEDEB7A8D6DA
:102B1000B4D0D0210D0A00000148006870470000C1
:102B2000500000203EB504460CB900203EBD00F028
:102B300010F901210AA0FEF7A9FC642001AB0BA249
:102B40000CA100900AA000F08BF805462DB101A859
:102B5000FDF73AFB20700120E8E70020E6E70000DF
:102B600041542B43474154543F0000000D0A0D0AC5
:102B70004F4B00002B43474154543A2000000000C3
:102B80007FB5054615B9002004B070BD00F0E1F82E
:102B900001210AA0FEF77AFC642001AB0AA20CA175
:102BA00000900AA000F05CF804462CB101A9284668
:102BB000FDF701FB0120E7E70020E5E741542B4347
:102BC00050494E3F000000000D0A0D0A4F4B000017
:102BD0002B4350494E3A20007CB504460D4604B1C3
:102BE0000DB900207CBD00F0B4F801210BA0FEF768
:102BF0004DFC642001AB0CA20DA100900BA000F0D5
:102C00002FF806463EB10020207001A8FDF7DCFA3F
:102C100028700120E6E70020E4E7000041542B4340
:102C20005245473F000000000D0A0D0A4F4B0000BF
:102C30002C00000070B504460D46FDF7D5FC2A4671
:102C40002146064800F05CF821460448FEF7D0FC17
:102C5000401C08B1012070BD0020FCE76E0C002074
:102C60002DE9F0470746884614469946DDF820A02E
:102C7000FDF7BAFC52463946194800F041F839468A
:102C80001748FEF7B5FC401C002825D041461448E3
:102C9000FEF7AEFC054621461148FEF7A9FC0646A4
:102CA000207838B90E48FDF771FA064631460DA076
:102CB000FFF74AF9681C70B1701C60B14046FEF71E
:102CC000A5FC0544731E2A4605494846FEF7A4FCA8
:102CD0000120BDE8F08700BFFDF786FC0020F8E783
:102CE0006E0C00202A656E64203D3D204E554C4CF4
:102CF0000D0A20696E64657832203D20256400004D
:102D00002DE9F04106460F461546FFF705FF8046C0
:102D100015E009E0FEF7CCFBC4B204B904E021469B
:102D20003046FEF759FC00BFFEF748FB0028F1DCF7
:102D300039463046FEF75CFC401C00B105E0FFF769
:102D4000EBFEA0EB0800A842E3D300BF0120BDE8E2
:102D5000F08110B5FDF74EFC10BD000038B50446FB
:102D60000094FFF7F6FF012105A0FEF765FB0021A7
:102D70006846FEF78BFB642104A0FFF75BFF38BDBC
:102D800041542B4349504D4F44453D004F4B0000AB
:102D900038B504460094FFF7DCFF012106A0FEF7DA
:102DA0004BFB00216846FEF771FB41F2883105A01C
:102DB000FFF740FF38BD000041542B43504F5744AC
:102DC0003D0000004E4F524D414C20504F57455250
:102DD00020444F574E00000010B50446FFF7B9FFDE
:102DE000012108A0FEF728FB01212046FEF724FB65
:102DF000012106A0FEF74AFB642105A0FFF71AFF98
:102E000010BD000041542B435354543D2200000098
:102E10004F4B000010B5ADF5007D0446FFF799FF5C
:102E2000224608A16846FFF79FF801216846FEF791
:102E30002DFB4FF47A7107A0FFF7FCFE0DF5007D26
:102E400010BD000041542B4654504349443D256475
:102E5000000000004F4B0D0A00000000F0B5ADF27D
:102E6000144D05460E460027FDF7BEFB012D10D17F
:102E70002A462BA185A8FFF777F8012185A8FEF740
:102E800005FB47F230512AA0FFF7D4FE0DF2144D96
:102E9000F0BD022D3ED133462A4629A185A8FFF771
:102EA00063F8012185A8FEF7F1FA85AA28A185A873
:102EB000FFF75AF841F2883005AB002285A900904F
:102EC00025A0FFF7CDFE044605AA214624A0FFF762
:102ED0003BF8012C01D00020D8E7002003A917A35C
:102EE00026A2CDE9001025A105A800F06BF9044643
:102EF00003A925A0FFF728F8012C01D00020C5E781
:102F000003A8FDF761F9C7B2012C01D10120BDE78B
:102F10000020BBE722A0FFF717F80020B6E700006B
:102F200041542B4654504745543D25640000000051
:102F30002B4654504745543A20312C310D0A00009D
:102F400041542B4654504745543D25642C2564007C
:102F500025730D0D0A0000004F4B0D0A0000000004
:102F6000726574203D2025642C2074656D705F624D
:102F70007566203D2025730D0A0000002B46545035
:102F80004745543A20322C006674705F7265637650
:102F90005F6C656E203D2025732F722F6E00000040
:102FA000734154465450474554206D6F6465206901
:102FB00073206572726F72210D0A000010B5ADF5B5
:102FC000007D0446FDF710FB224608A16846FEF787
:102FD000CBFF01216846FEF759FA4FF47A7108A039
:102FE000FFF728FE0DF5007D10BD000041542B4673
:102FF00054504745544E414D453D22257322000013
:103000004F4B0D0A0000000010B5ADF5007D0446E1
:10301000FDF7EAFA224608A16846FEF7A5FF01215E
:103020006846FEF733FA4FF47A7108A0FFF702FE04
:103030000DF5007D10BD000041542B46545047450E
:1030400054504154483D2225732200004F4B0D0A35
:103050000000000010B5ADF5007D0446FDF7C4FA90
:10306000224608A16846FEF77FFF01216846FEF769
:103070000DFA4FF47A7107A0FFF7DCFD0DF5007D26
:1030800010BD000041542B46545050573D2225732B
:10309000220000004F4B0D0A0000000010B5ADF5F6
:1030A000007D0446FDF7A0FA224608A16846FEF717
:1030B0005BFF01216846FEF7E9F94FF47A7107A03A
:1030C000FFF7B8FD0DF5007D10BD000041542B4603
:1030D0005450534552563D22257322004F4B0D0A42
:1030E0000000000010B5ADF5007D0446FDF77CFA48
:1030F000224608A16846FEF737FF01216846FEF721
:10310000C5F94FF47A7107A0FFF794FD0DF5007D26
:1031100010BD000041542B465450554E3D2225739E
:10312000220000004F4B0D0A00000000F0B58BB0EC
:1031300004460D4616461F46FFF70BFE2B46224659
:1031400007A103A8CDE90067FEF70EFF012103A840
:10315000FEF79CF9642109A0FFF76CFD0BB0F0BDF0
:1031600041542B53415042523D25642C25642C225E
:103170002573222C22257322000000004F4B0000F3
:1031800030B589B004460D46FFF7E3FD2B462246D5
:1031900007A101A8FEF7E8FE012101A8FEF776F9D4
:1031A00041F2883106A0FFF745FD09B030BD0000AF
:1031B00041542B53415042523D25642C256400005C
:1031C0004F4B00002DE9F05F8046894614461D46AE
:1031D000DDE90AAB49464046FEF70AFA401C0028E2
:1031E00026D021464046FEF703FA064629464046C9
:1031F000FEF7FEF90746BBF1010F07D12846FCF7A1
:10320000E3FF074639460BA0FEF79EFE701C70B127
:10321000781C60B12046FEF7F9F906447B1E324661
:1032200041465046FEF7F8F90120BDE8F09F00BF87
:103230000020FAE7737472696E672066696E642015
:1032400074797065206973206E756D6265722C20CB
:10325000696E64657832203D20256400024800686C
:10326000401C014908607047500000200040404069
:103270004040404040404141414141404040404049
:1032800040404040404040404040404040050202F5
:1032900002020202020202020202020202202020B4
:1032A0002020202020202002020202020202909010
:1032B000909090901010101010101010101010100E
:1032C0001010101010101010020202020202888862
:1032D000888888880808080808080808080808086E
:1032E0000808080808080808020202024000000056
:1032F0006D32000814330008000000206400000054
:10330000981F000878330008640000209C370000F4
:10331000A81F0008000000000000000000A24A04EE
:103320000000000000000000010203040607080975
:1033300017EF000000000000000000000000000087
:10334000000000000102030401020304060708094B
:103350000204060800000000000000000000000059
:10336000000000000000000000000000000000005D
:08337000000000000000000055
:04000005080000ED02
:00000001FF
