:020000040800F2
:10000000006C0020FD010008691400082910000898
:1000100065140008510A0008C12100080000000012
:1000200000000000000000000000000007190008A8
:10003000F50C00080000000039150008CD1B000871
:10004000170200081702000817020008170200082C
:10005000170200081702000817020008170200081C
:10006000170200081702000817020008170200080C
:1000700017020008170200081702000817020008FC
:1000800017020008170200081702000817020008EC
:1000900017020008170200081702000817020008DC
:1000A00017020008170200081702000817020008CC
:1000B000A51C000817020008170200081702000814
:1000C00017020008170200081702000817020008AC
:1000D00017020008D11E0008AD1F00081702000813
:1000E000170200081702000817020008170200088C
:1000F000170200081702000817020008170200087C
:10010000170200081702000817020008170200086B
:10011000170200081702000817020008170200085B
:10012000170200081702000817020008170200084B
:1001300000F002F800F04EF80AA090E8000C8244AB
:100140008344AAF10107DA4501D100F043F8AFF288
:10015000090EBAE80F0013F0010F18BFFB1A43F0A5
:1001600001031847E031000000320000103A24BFBC
:1001700078C878C1FAD8520724BF30C830C144BF0C
:1001800004680C607047000000230024002500264E
:10019000103A28BF78C1FBD8520728BF30C148BFEA
:1001A0000B607047642900F0BB80782900F0F48070
:1001B000732900F03A83002070471FB500F030FC2F
:1001C00004000020002103F04FF8401C60601FBDB8
:1001D00010B510BD00F0FFFB1146FFF7EEFF02F077
:1001E0002DFB00F02FFC03B4FFF7F2FF03BC02F07D
:1001F0006EF9000080F308887047000009488047C6
:1002000009480047FEE7FEE7FEE7FEE7FEE7FEE7F8
:10021000FEE7FEE7FEE7FEE704480549054A064B10
:1002200070470000D11B0008310100080066002063
:10023000006C00200068002000680020704700006B
:100240000FB4044910B503AA029800F0F3FA10BCE9
:100250005DF814FB240000200FB41CB5074B06AA60
:100260007B4469460090059800F0B5FA0020694685
:1002700000F0C4FA1CBC5DF814FB000099050000F6
:1002800070B5044685690068C10601D5302600E0D6
:100290002026C00707D070BDD4E901213046904721
:1002A000206A401C20626D1EF6D570BD70B50446F4
:1002B00085690078C00707D170BDD4E901212020ED
:1002C0009047206A401C20626D1EF6D570BD70B547
:1002D0000C460546012A05D02878800600D5EA6933
:1002E000002302E0012305E05B1C934202D2E05CA4
:1002F0000028F9D1A869E618C01AA861286A18442C
:1003000028622846FFF7BCFF04E0D5E9012114F874
:10031000010B9047B442F8D32846FFF7C7FF70BDE2
:100320002DE9F0410646002410687529314616A5CE
:1003300010D0AFF30080002802DA404213A507E096
:1003400031688A0701D512A502E0490704D511A535
:10035000012401E0AFF3008000210A2206F1240706
:1003600009E0B0FBF2FCB0FBF2F302FB1C00303002
:1003700078541846491C0028F3D123462A463046B3
:10038000BDE8F04100F0C8B9000000002D000000F9
:100390002B0000002000000070B504460D462146E9
:1003A0001068AFF300802188090502D50F4A7A440E
:1003B00002E00E4A7A440E32002104F1240305E0E3
:1003C00000F00F060009965D5E54491C0028F7D125
:1003D00020780023000704D5702D02D009B1022334
:1003E00011322046BDE8704000F096B9E22E0000C0
:1003F0002DE9F05F894604464FF0000ADFF824B18A
:10040000FB44C0F820A02046E168884700287DD042
:10041000252806D0D4E901219047206A401C20629B
:10042000F1E700255F462046E16888472028064618
:1004300007DB312E05D2B81910F8200C08B105439E
:10044000F1E7A80701D525F00405C4F81CA0002792
:10045000C4F818A02A2E09D0304602F031F838B37B
:1004600004EB8708303EC8F8186019E059F8041BFF
:10047000204604EB87029161E1688847012F064618
:1004800018D1E069002820DA25F020051DE0D8F811
:10049000180000EB800006EB40003038C8F8180068
:1004A0002046E1688847064602F00AF80028EED1A7
:1004B000012F0AD02E2E08D12046E16888477F1CE4
:1004C0000646022F45F02005C4DBA069002803DAA8
:1004D000404245F00105A061E80701D025F0100574
:1004E000A6B1A6F14100192802D8203645F40065CE
:1004F0004A463146204625604D46FFF753FE60B11F
:10050000012807D0ED1D25F0070000E007E000F10D
:10051000080978E705F1040975E730467AE7206AAB
:10052000BDE8F09FB82E000070B5064600F0F0F868
:100530000468054630460A22002100F08DF92C603F
:1005400070BD30B505460B462A4613F8014B12F82C
:10055000010B08B1A042F8D01CB1002802D06D1CDC
:10056000F1E7284630BD40EA0103024630B59B075B
:1005700010D14FF0013400E008C208C91D1B9D4393
:1005800015EAC41FF8D013F0FF0102F8011B0DD0CB
:100590001B0AF8E711F8013B002B02F8013B05D0DC
:1005A00011F8013B002B02F8013BF3D130BD10B52F
:1005B000431C02E010F8011B71B18107FAD14FF022
:1005C000013202C88C1A8C4314EAC211F9D0C01A45
:1005D0000A0603D0C01E10BDC01A10BD0A0401D007
:1005E000801E10BD0902FCD0401E10BD4FF000025D
:1005F0000429C0F0128010F0030C00F06781CCF1E8
:10060000040CBCF1020F18BF00F8012BA8BF20F8A2
:10061000022BA1EB0C0100F059B95FEAC17C24BFA9
:1006200000F8012B00F8012B48BF00F8012B7047A0
:1006300010B5044610F0030F08BF11F0030F40F08F
:1006400015804FF0013E121FC0F20E8051F8043B9E
:10065000A3EB0E0C2CEA030C1CEACE1C08BF40F8DE
:10066000043BF0D0A1F1040102F10402521E08DBA8
:1006700011F8013B002B00F8013BF7D11146FFF7C1
:10068000B5FF204610BD00004FF0013C50F8042B90
:1006900051F8043B9A4221D1A2EB0C03934313EA95
:1006A000CC1317D150F8042B51F8043B9A4215D1C2
:1006B000A2EB0C03934313EACC130BD150F8042B99
:1006C00051F8043B9A4209D1A2EB0C03934313EA7D
:1006D000CC13DBD04FF00000704700BFD01A01BA36
:1006E000B1FA81F101F0180122FA01F0CB40C1F119
:1006F0002001DBB2C0B2C01A2CFA01F3D11A914327
:1007000011EAC311E6D170477047704770477047D0
:10071000004870477C0E00202DE9F0470D469946B1
:100720009246044600F124080168880604D5E06971
:1007300021F01001216000E00120A84201DD471BEB
:1007400000E00027A1697A1902EB0900081AA061EC
:100750002078C00602D42046FFF792FD002608E06C
:10076000D4E901211AF806009047206A401C761C43
:1007700020624E45F4DB2078C0060AD52046FFF7FC
:100780007FFD06E0D4E9012130209047206A401C1B
:100790002062381EA7F10107F4DC07E0D4E901214B
:1007A00018F805009047206A401C2062281EA5F119
:1007B0000105F3DC2046FFF779FD2078000602D51D
:1007C0000220BDE8F0870120FBE7000001694A1C18
:1007D00002610878704700B58FB0CDE90131002182
:1007E000059105497944CDE9031011466846FFF7A4
:1007F000FFFD0FB000BD0000E5FFFFFF0A6802F833
:10080000010B0A60704710B5436913B1AFF3008064
:1008100001E0FFF75CFD012010BD127800F124011A
:100820000A7000224A700122EDE711684FF0FF3292
:10083000E9E70000074B70B50D467B44FFF7CBFF9F
:100840000446284600F0C3F810B14FF0FF3070BDE9
:10085000204670BD4F1F00002DE9F04791460F461E
:1008600080460446002614F8015B2DB100F058F8CC
:100870000068405DC007F6D12B2D02D02D2D18D079
:10088000641E4A463946204600F052F827B13968BE
:10089000A14201D1C7F800804FF0020471050BD5C9
:1008A0004042002803DDFFF733FF0460A007BDE8E6
:1008B000F08746F48066E4E70028F8DAFFF728FFBF
:1008C00004606FF00040F2E74FF0000200B51346FD
:1008D00094469646203922BFA0E80C50A0E80C5060
:1008E000B1F12001BFF4F7AF090728BFA0E80C5011
:1008F00048BF0CC05DF804EB890028BF40F8042B0A
:1009000008BF704748BF20F8022B11F0804F18BF76
:1009100000F8012B70470000004870477C0E002053
:1009200010B500F07DF8001D10BD00BF3D2900008E
:100930002DE9F05F824615468B4600270AF1010437
:10094000B9460078302801D09DB113E014F8010BAE
:100950000127782803D0582801D045B10AE00DB10D
:10096000102D07D1002714F8010B102502E00825EF
:1009700000E00A250026B0460EE005FB080005FB56
:1009800006F101271FFA80F801EB1046B6F5803F0B
:1009900000D3B94614F8010B294600F045F80028A9
:1009A000EBDABBF1000F05D00FB1641E00E0544636
:1009B000CBF80040B9F1000F06D0FFF7A9FE0221E5
:1009C0000160C81EBDE8F09F48EA0640FAE7007BD8
:1009D00000F0800070477546FFF79EFFAE460500A9
:1009E0006946534620F00700854618B020B5FFF74A
:1009F00013FCBDE820404FF000064FF000074FF019
:100A000000084FF0000B21F00701AC46ACE8C0092C
:100A1000ACE8C009ACE8C009ACE8C0098D46704735
:100A2000004870479C0E00203A2800D2303820F051
:100A30002002412A01D3A2F13700884201D34FF0AE
:100A4000FF3070470446AFF300802046FFF7CBFB32
:100A500000BFFEE710B586B0002400BF12E003A877
:100A600002F03AF910B9002006B010BD52A103A857
:100A7000FFF70AFE00B907E04FF47A7001F060FD5D
:100A8000601CC4B21E2CEADB00BF1E2C01DB002060
:100A9000EAE74BA0FFF7D4FB4FF47A7001F050FD6A
:100AA00000240FE04A4801F0F7FD08B90020DBE719
:100AB0004748007800B107E04FF47A7001F040FD3C
:100AC000601CC4B21E2CEDDB00BF1E2C01DB00201D
:100AD000CAE73F4801783FA0FFF7B2FB4FF47A70B6
:100AE00001F02EFD002415E001A902A802F020F972
:100AF00008B90020B8E79DF80400012803D09DF84C
:100B00000400052800D107E04FF47A7001F018FDC9
:100B1000601CC4B21E2CE7DB00BF1E2C01DB0020D2
:100B2000A2E72FA0FFF78CFB4FF47A7001F008FDCD
:100B3000002410E0684602F0A1F808B9002093E70D
:100B40009DF80000012800D107E04FF47A7001F011
:100B5000F7FC601CC4B21E2CECDB00BF1E2C01DBBA
:100B6000002081E722A0FFF76BFB012002F026FAAC
:100B700008B9002078E722A0FFF762FB26A002F068
:100B8000B5FA08B900206FE725A0FFF759FB01F07F
:100B90006DFD08B9002067E727A0FFF751FB2A4841
:100BA00001F032FD08B900205EE7274927A0FFF7D2
:100BB00047FB012058E7000052454144590000001E
:100BC0004350494E3D5245414459210D0A00000011
:100BD00050000020637371203D2025640D0A000041
:100BE000435245475F737461743D31210D0A000023
:100BF0004347415454203D2031210D0A000000009C
:100C00007341544349504D4F4445203D20312069A4
:100C100073204F4B210D0A00434D4E4554000000F8
:100C200043535454203D20434D4E45542069732076
:100C30004F4B210D0A00000043494943522069737C
:100C4000204F4B210D0A00005C0E002073696D5F80
:100C50006970203D2025730D0A0000000020014925
:100C6000087070475C0C002000200349087003499D
:100C700008700349087070474000002041000020C0
:100C80004200002010B5002400BF0AE001F0ACFCD7
:100C900020B94FF47A7001F053FC00E003E0601CCF
:100CA000C4B2282CF2DB00BF282C01DB002010BDD1
:100CB00006A0FFF7C5FA41F2883107A002F0E6F876
:100CC00010B108A0FFF7BCFA0120F0E741542069F9
:100CD00073204F4B210D0A00534D53205265616420
:100CE00079000000534D53205265616479210D0A4B
:100CF000000000007047000030B5044604254FF4A2
:100D0000302000F06FF80546042D17D10C4800691B
:100D100040F002000A49086108464461006940F059
:100D2000400008614FF4302000F05CF805460448AC
:100D3000006941F6FD71084001490861284630BD4F
:100D40000020024004200B49C96801F0010109B1EB
:100D500001200EE00749C96801F0040109B1022031
:100D600007E00449C96801F0100109B1032000E05F
:100D700004207047002002400348006940F08000D2
:100D800001490861704700000020024070B5044628
:100D90000D460426F00200F025F80646042E11D177
:100DA0000948006940F00100074908612580F00208
:100DB00000F018F806460448006941F6FE71084044
:100DC00001490861304670BD0020024002480349D5
:100DD000486003484860704723016745002002408F
:100DE000AB89EFCD00B502460423FFF7ABFF034606
:100DF00003E0FFF7A7FF0346521E012B01D1002A93
:100E0000F7D102B90523184600BD2DE9F04102468D
:100E100000250026002000230024002791F803C0AD
:100E20000CF00F0591F803C00CF0100CBCF1000F92
:100E300003D091F802C04CEA050591F800C0BCF15E
:100E4000000F31D0146800202BE04FF0010C0CFA99
:100E500000F3B1F800C00CEA03069E4220D18300E3
:100E60004FF00F0C0CFA03F7BC4305FA03FC4CEAF5
:100E7000040491F803C0BCF1280F06D14FF0010C17
:100E80000CFA00FCC2F814C00AE091F803C0BCF1EF
:100E9000480F05D14FF0010C0CFA00FCC2F810C04D
:100EA000401C0828D1D31460B1F800C0BCF1FF0F7A
:100EB00034DD546800202EE000F1080C4FF00108EA
:100EC00008FA0CF3B1F800C00CEA03069E4221D1E7
:100ED00083004FF00F0C0CFA03F7BC4305FA03FC38
:100EE0004CEA040491F803C0BCF1280F05D100F1CD
:100EF000080C08FA0CF8C2F8148091F803C0BCF191
:100F0000480F07D100F1080C4FF0010808FA0CF85F
:100F1000C2F81080401C0828CED35460BDE8F08190
:100F20000246002093680B400BB1012000E0002036
:100F300070470161704710B50446002211462046F3
:100F400000F06CFF10BD000070B505460E4614465B
:100F500000201A4908604FF47A7001F0F1FA01207C
:100F60001749C1F880014FF47A7001F0E9FA0020C6
:100F7000144908604FF47A7001F0E2FAFFF782FE3C
:100F800008B9002070BDFFF765FD08B90020F9E73A
:100F900000F006FA08B90020F4E7204600F046F811
:100FA00008B90020EEE73146284600F041FE08B9B6
:100FB0000020E7E7FFF758FE0120E3E78401214224
:100FC000008021428081214210B5012002F04EF8BC
:100FD00018B109A0FFF734F902E00BA0FFF730F9D0
:100FE00001200F4908604FF47A7001F0A9FA00203F
:100FF0000C49C1F8840110BD47534D2072657374CC
:10100000617274210D0A000047534D20726573749C
:10101000617274204641494C4544210D0A0000008C
:10102000840121420000214200BFFEE720B5ADF55A
:10103000826D054641A343A20121032002F0C0F8BE
:1010400018B900200DF5826D20BD40A0FFF7F8F81B
:1010500042A344A20121032002F0B2F808B9002003
:10106000F0E741A0FFF7ECF80121084602F0D2F8C2
:1010700008B90020E6E740A0FFF7E2F801210220CE
:1010800002F0C8F808B90020DCE73FA0FFF7D8F865
:1010900001F054FB08B90020D4E73FA0FFF7D0F8D7
:1010A00041A142A002F066F808B90020CAE740A0BA
:1010B000FFF7C6F842A14B4A4B4800787123C3EBB7
:1010C00040004A4B1B68CDE90030CDE90221484879
:1010D000484A4949036884A8FFF7BEF884A947A095
:1010E000FFF7AEF884A947A002F044F808B9002041
:1010F000A8E745A0FFF7A4F82146002002F014F865
:1011000008B900209EE744A0FFF79AF804A801F070
:1011100097FE08B9002095E704A943A0FFF790F8CF
:1011200043A0FFF78DF801F01DFB08B9002089E707
:1011300043A0FFF785F8012084E700004750525391
:1011400000000000434F4E545950450068747470BD
:101150002031204F4B210D0A00000000434D4E4529
:101160005400000041504E00687474702032204FCB
:101170004B210D0A00000000687474702033204F6A
:101180004B210D0A00000000687474702034204F59
:101190004B210D0A00000000687474702035204F48
:1011A0004B210D0A000000003100000043494400BB
:1011B000687474702036204F4B210D0A0000000027
:1011C00039656365643162313163386337666664FB
:1011D00035343437656230626132383734386438D8
:1011E000000000005C0E002050000020580000208D
:1011F000540000206B0E0020D032000825730D0A29
:101200000000000055524C00687474702037204F65
:101210004B210D0A00000000687474702038204FC4
:101220004B210D0A000000007B25730D0A00000011
:10123000687474702039204F4B210D0A00000000A3
:1012400068747470203130204F4B210D0A0000006B
:1012500008B50121442000F081F91C20ADF8000000
:1012600048208DF8030069460648FFF7CEFD0120AF
:10127000ADF8000028208DF8030069460248FFF70A
:10128000C4FD08BD001801400008014010B5044627
:1012900014B101202C4908702B480078002837D061
:1012A00010212A48FFF73CFE78B108212748FFF7B4
:1012B00037FE50B104212548FFF732FE28B1012145
:1012C0002348FFF72DFE012822D10A2001F066F9FC
:1012D00000201D49087010211C48FFF721FE08B9A5
:1012E000012010BD08211948FFF71AFE08B9022095
:1012F000F7E704211548FFF713FE08B90320F0E7CC
:1013000001211348FFF70CFE01281BD10420E8E758
:1013100010210E48FFF704FE012813D108210B48C5
:10132000FFF7FEFD01280DD104210848FFF7F8FD65
:10133000012807D101210648FFF7F2FD10B901206D
:10134000014908700020CCE7180000200018014077
:101350000008014008B50121482000F0FFF82020D6
:10136000ADF8000010208DF8030003208DF8020076
:1013700069460948FFF749FD20210748FFF7D9FDD5
:101380002020ADF8000069460448FFF73EFD20210B
:101390000248FFF7CEFD08BD000C014000180140D7
:1013A00010B5164801F0A2F908B9002010BD134984
:1013B00013A0FEF745FF022001F07CFE08B90020D3
:1013C000F4E713A0FEF73CFF1749184801F0DEFCD4
:1013D00008B90020EAE7144802681448016814A01C
:1013E000FEF72EFF002001F065FE08B90020DDE7C2
:1013F00016A0FEF725FF0120D8E700006B0E0020A5
:1014000073696D5F696D6569203D2025730D0A0064
:1014100041542B43524547203D2032206973204FD1
:101420004B210D0A0000000058000020540000204D
:1014300073696D5F6C6F63203D2025642C20736998
:101440006D5F6369203D2025640D0A0041542B43E4
:10145000524547203D2030206973204F4B210D0A13
:101460000000000000BFFEE7704708B54FF4C06001
:1014700000F058F81C208DF8000000208DF80100C5
:1014800002208DF8020001208DF80300684600F06C
:1014900011F81D208DF8000001208DF801000020BA
:1014A0008DF8020001208DF80300684600F002F874
:1014B00008BD000070B5002100230F22C47804B3DA
:1014C000154C246804F4E064C4F5E064210AC1F119
:1014D0000403CA40447804FA03F184781440214399
:1014E00009010E4C0678A155047804F01F0501246B
:1014F000AC4005786D11AD0005F1E025C5F800415F
:1015000009E0047804F01F050124AC40044D06787E
:10151000761145F8264070BD0CED00E000E400E0D7
:1015200080E100E002490143024A11607047000077
:101530000000FA050CED00E07047000029B1064AF2
:10154000D2690243044BDA6104E0034AD269824360
:10155000014BDA61704700000010024029B1064AD1
:1015600092690243044B9A6104E0034A9269824300
:10157000014B9A61704700000010024030B5002115
:101580000022002400232D4D6D6805F00C0121B1CF
:10159000042905D0082923D105E0294D056022E062
:1015A000274D05601FE0254D6D6805F47012234D31
:1015B0006D6805F48034022505EB92421CB9214D7B
:1015C000554305600BE01D4D6D6805F400351DB1F8
:1015D0001C4D5543056002E0194D5543056002E07E
:1015E000174D056000BF00BF144D6D6805F0F00198
:1015F0000909154D6B5C0568DD4045600F4D6D6850
:1016000005F4E061090A104D6B5C4568DD408560BA
:101610000A4D6D6805F46051C90A0B4D6B5C456855
:10162000DD40C560054D6D6805F44041890B074DEF
:101630006B5CC568B5FBF3F5056130BD0010024079
:1016400000127A0000093D00280000203800002028
:1016500000B587B001210820FFF780FF0121880332
:10166000FFF76CFF4FF46040ADF8180018208DF8BC
:101670001B0003208DF81A0006A91848FFF7C5FBC8
:101680004FF460411548FFF754FC0020ADF804000A
:101690004FF48270ADF806000020ADF8080002207B
:1016A000ADF80A000120ADF80C004002ADF80E00C4
:1016B0003820ADF810000020ADF812000720ADF87A
:1016C000140001A9064800F065F80121044800F063
:1016D00047F8FF2000F006F807B000BD000C0140FD
:1016E0000038004070B50546002405E0601CC4B217
:1016F000C82C01DD002070BD02210E4800F03CF82E
:101700000028F3D029460B4800F042F8002405E0F9
:10171000601CC4B2C82C01DD0020ECE701210548A3
:1017200000F02AF80028F3D0024800F02EF8C0B2EA
:10173000E1E700000038004010B504460748008883
:101740004FF6C771084005490880084600882043C5
:1017500008800121014800F003F810BD0038004066
:1017600021B1028842F04002028004E002884FF674
:10177000BF731A40028070470246002013890B4055
:101780000BB1012000E000207047014688897047B6
:101790008181704710B50022028802F441520B8803
:1017A0004C8823438C882343CC8823430C892343D0
:1017B0004C8923438C892343CC8923431A430280D9
:1017C000838B4FF2FF74234083830B8A038210BD07
:1017D00030B503460C461546002207E0184600F0D7
:1017E00008F824F812009B1C501C82B2AA42F5DBB8
:1017F00030BD0146088870472DE9F05F80468A4673
:101800001746B8F1006F02D33348804501D3BDE8D5
:10181000F09FFFF7DBFAA8F1006B4FEADB25CBF373
:101820004909C9F58064A74200DC3C464DE04FF011
:10183000006101EBC5204A142849FFF7C9FF0026C3
:101840000BE009EB0600254931F810004FF6FF7157
:10185000884200D003E0701C86B2A642F1DB00BFD4
:10186000A6421BDA4FF0006101EBC520FFF744FAF6
:10187000002608E03AF8160006EB0901174A22F89C
:101880001100701C86B2A642F4DB4FF0006101EB40
:10189000C5204A14114900F023F804E022465146BD
:1018A000404600F01DF8A74200D10FE06D1C4FF03C
:1018B00000090AEB440AA044381B87B2B7F5806FD1
:1018C00002DD4FF4806400E03C46B0E700BFFFF764
:1018D00053FA00BF9BE70000000008085C000020EE
:1018E0002DE9F04105460E461746002407E036F87C
:1018F00014102846FFF74AFAAD1C601C84B2BC42A3
:10190000F5DBBDE8F08170470648007800F580609F
:10191000054A1278811AC81701EB90508012A1EB8A
:101920008020704740000020410000200146114AFD
:101930001278501CC21700EB92529212A0EB822236
:101940000D4B1B789A420FD00C480A4A12788154EA
:10195000084A1278501CC21700EB92529212A0EB68
:101960008222044B1A7002E00120054A1070012007
:101970007047000040000020410000205C0800206B
:10198000420000202DE9FC4105460E46012E0AD1F9
:101990002C4604E014F8010B0D49096888472078AB
:1019A0000028F7D111E086B96C462F683A4609A1A4
:1019B0002046FEF751FC04E014F8010B04490968C5
:1019C000884720780028F7D100BFBDE8FC810000DF
:1019D000480000202564000070B504460D462946E5
:1019E0002046FFF7CFFF0D200349096888470A20EA
:1019F00001490968884770BD480000200C480078FC
:101A00000C4A1278904202D14FF0FF3070470A48DA
:101A1000074A1278815C064A1278501CC21700EB04
:101A200092529212A0EB8222014B1A700846EDE707
:101A300041000020400000205C08002010B500F0AC
:101A400001F810BD0CB500200190009033480068EB
:101A500040F480303149086000BF3048006800F42D
:101A6000003000900198401C0190009818B901982E
:101A7000B0F5A06FF1D12948006800F4003010B132
:101A80000120009001E0002000900098012843D13F
:101A90002348006840F010002149086008460068AB
:101AA00020F0030008600846006840F0020008606B
:101AB0001A48406819494860084640684860084626
:101AC000406840F4806048600846406820F47C101C
:101AD00048600846406840F4E810486008460068DE
:101AE00040F08070086000BF0C48006800F0007093
:101AF0000028F9D00948406820F0030007494860F1
:101B00000846406840F00200486000BF0348406853
:101B100000F00C000828F9D10CBD000000100240B4
:101B20000020024070B504460D462046FEF73FFDFA
:101B30000646A5550021701C215470BD70B50446A1
:101B40000E4631462046FEF7FCFC054615B94FF01F
:101B5000FF3070BD281BFCE710B504462046FEF799
:101B600026FD10BD2DE9F04107460E4614461D46E0
:101B7000AC4203DD4FF0FF30BDE8F0813046FEF7A8
:101B800016FDA84202D24FF0FF30F5E7281B421C99
:101B900031193846FEF74CFD0021281B401C3954F2
:101BA0000120E9E7042808D14FF0E021096941F05C
:101BB00004014FF0E022116107E04FF0E0210969D4
:101BC00021F004014FF0E0221161704770470000DE
:101BD00010B51348006840F001001149086008463C
:101BE0004068104908400E494860084600680E49A0
:101BF00008400B4908600846006820F4802008600F
:101C00000846406820F4FE0048604FF41F008860DA
:101C1000FFF714FF4FF000600449086010BD00009A
:101C2000001002400000FFF8FFFFF6FE08ED00E0A4
:101C300070B504460D46012001F0A6F908B9002050
:101C400070BD08A0FEF7FCFA2946204600F06CFCA7
:101C500008B90020F4E72A46214607A0FEF7F0FA6B
:101C60000120EDE743495048454144203D203120C3
:101C70004F4B0D0A000000006372656174652074AB
:101C80006370206F6B21207365727665725F697077
:101C9000203D2025732C20706F7274203D20256418
:101CA0000D0A000010B50121880700F03BF828B1AB
:101CB0000121880700F027F801F0CEFA10BD0EB51B
:101CC00001210846FFF73AFC40F2E730ADF8040086
:101CD0004720ADF800000020ADF80600ADF8020086
:101CE00069464FF0804000F037F80121880700F086
:101CF0000AF801221146900700F025F80121880713
:101D000000F004F80EBDCA430282704721B1028878
:101D100042F00102028004E002884FF6FE731A408E
:101D20000280704730B50246002000230024158A47
:101D300005EA0103958905EA010413B10CB10120FC
:101D400000E0002030BD1AB183890B43838102E09B
:101D500083898B4383817047002202881D4B984200
:101D60000ED01D4B98420BD0B0F1804F08D01B4BCA
:101D7000984205D01A4B984202D01A4B984204D18F
:101D80004FF68F731A404B881A43174B984207D06F
:101D9000164B984204D04FF6FF431A40CB881A43A3
:101DA00002808B8883850B8803850A4B98420BD071
:101DB000094B984208D00E4B984205D00D4B9842E3
:101DC00002D00D4B984201D10B7A03860123838206
:101DD00070470000002C0140003401400004004026
:101DE00000080040000C00400010004000140040BB
:101DF00000400140004401400048014010B5044645
:101E000000BF4021044800F0F6F80028F9D0214630
:101E1000014800F0BEF910BD0038014070B586B031
:101E200004460E46154601218803FFF797FB012162
:101E30000420FFF793FB4FF40070ADF8040003207B
:101E40008DF8060018208DF8070001A91E48FEF73E
:101E5000DCFF4FF48060ADF8040004208DF807002B
:101E600001A91948FEF7D1FF25208DF80000F0B236
:101E70008DF80100E8B28DF8020001208DF8030012
:101E80006846FFF717FB02940020ADF80C00ADF890
:101E90000E00ADF81000ADF814000C20ADF81200E3
:101EA00002A90A4800F004F9012240F2255107482E
:101EB00000F0D8F80121054800F091F840210348CE
:101EC00000F075F806B070BD000801400038014010
:101ED00010B540F22551084800F09AF858B140F288
:101EE0002551054800F06CF8034800F04DF9C4B2E4
:101EF0002046FFF71BFD10BD0038014070B586B0CD
:101F000004460E46154601214804FFF717FB012140
:101F10000420FFF723FB0420ADF8040003208DF814
:101F2000060018208DF8070001A91E48FEF76DFF76
:101F30000820ADF8040004208DF8070001A9194815
:101F4000FEF763FF26208DF80000F0B28DF8010047
:101F5000E8B28DF8020001208DF803006846FFF713
:101F6000A9FA02940020ADF80C00ADF80E00ADF80F
:101F70001000ADF814000C20ADF8120002A90A48B8
:101F800000F096F8012240F22551074800F06AF867
:101F90000121054800F023F84021034800F007F82C
:101FA00006B070BD0008014000440040704701F4D5
:101FB0000072B2F5007F00D100BFCA4302807047B3
:101FC00010B50022002340F66A14A14200D100BFE0
:101FD0000A1201249440A3B2DC43048010BD21B155
:101FE000828942F40052828104E082894DF6FF73B7
:101FF0001A408281704702460020B1F5007F00D16F
:1020000000BF13880B400BB1012000E00020704797
:1020100070B50246002400230025002040F66A1611
:10202000B14200D100BFC1F3421501F01F030126E8
:1020300006FA03F3012D02D19689334006E0022D02
:1020400002D1168A334001E0968A33400C120126F1
:1020500006FA04F41688344013B10CB1012000E0F4
:10206000002070BDF0B503460024002600250020A6
:1020700040F66A17B94200D100BF1846C1F34214B6
:1020800001F01F06012707FA06F5012C01D10C30DB
:1020900004E0022C01D1103000E014301AB10768BE
:1020A0002F43076002E00768AF430760F0BD000000
:1020B0002DE9F04786B005460E460024A24600BF33
:1020C000A1460027B08900B100BF2F462C8A4CF6EC
:1020D000FF700440F08804432C82AC894EF6F31064
:1020E0000440B08831890843718908430443AC81B6
:1020F000AC8A4FF6FF400440B0890443AC8201A88B
:10210000FFF73CFA1F48874202D1DDF810A001E03A
:10211000DDF80CA0A88900F4004040B10AEBCA0029
:1021200000EB0A1031684900B0FBF1F807E00AEB58
:10213000CA0000EB0A1031688900B0FBF1F8642096
:10214000B8FBF0F004012009642101FB1089A88983
:1021500000F4004040B1322000EBC900B0FBF1F0C8
:1021600000F00700044308E0322000EB091064216E
:10217000B0FBF1F000F00F0004432C8106B0BDE885
:10218000F08700000038014001468888C0F308004D
:102190007047C1F3080282807047000070B50646A0
:1021A0000C46154604480460044805603046024960
:1021B0000968884770BD00004400002048000020E6
:1021C00000BFFEE710B50446214610A0FEF738F820
:1021D000240300F017F900F0AFF800200D49086063
:1021E0002020FFF77FFAC4F30740FFF77BFAC4F320
:1021F0000720FFF777FAE0B2FFF774FA01200649EB
:10220000C1F8B00100F098F810BD000066653A25ED
:10221000780D0A00B08121420080214208B50121D9
:102220000820FFF79BF94FF48050ADF80000102014
:102230008DF8030003208DF8020069460A48FEF776
:10224000E4FD4FF480510848FEF773FE0120074972
:102250000860FFF7FDF90020FFF76EFA00F032F892
:102260000349088008BD0000000C0140B0812142F4
:102270001A0000202DE9F04106460C4617460020C2
:102280000F4908600320FFF72DFAC4F30740FFF75A
:1022900029FAC4F30720FFF725FAE0B2FFF722FA84
:1022A000002505E0FF20FFF71DFA7055681C85B278
:1022B000BD42F7DB012002490860BDE8F081000063
:1022C000B081214210B5002400200E490860902002
:1022D000FFF708FA0020FFF705FA0020FFF702FADF
:1022E0000020FFF7FFF9FF20FFF7FCF944EA002484
:1022F000FF20FFF7F7F9044301200349C1F8B001BB
:10230000204610BDB08121420080214210B500243A
:102310000020074908600520FFF7E4F9FF20FFF7D8
:10232000E1F9044601200349C1F8B001204610BD7F
:10233000B08121420080214210B500BFFFF7E6FFC7
:1023400000F001000028F9D110BD00002DE9F05F78
:1023500081460F461646DFF8A8B04FEA1738C7F394
:102360000B0ACAF58054A64200DC344644E04FEA2A
:1023700008314FF480525846FFF77CFF002508E0F3
:102380000AEB05001BF80000FF2800D003E0681CE2
:1023900085B2A542F4DB00BFA54216DA4046FFF73E
:1023A00011FF002507E019F8050005EB0A010BF8FD
:1023B0000100681C85B2A542F5DB4FEA08314FF4F5
:1023C0008052584600F02EF804E02246394648462E
:1023D00000F028F8A64200D10FE008F101084FF004
:1023E000000AA1442744301B86B2B6F5805F02DDA7
:1023F0004FF4805400E03446B9E700BFBDE8F09FD9
:10240000004E002010B50020044908600620FFF7A8
:1024100069F901200249C1F8B00110BDB081214223
:10242000008021422DE9F04107460E461446F0B2E5
:10243000C0F58075AC4200DC254612E02A463146E4
:10244000384600F013F8AC4200D10BE02F442E4484
:10245000601B84B2B4F5807F02DD4FF4807500E02C
:102460002546EBE700BFBDE8F08100002DE9F04113
:1024700006460C461746FFF7C5FF00200F490860C7
:102480000220FFF72FF9C4F30740FFF72BF9C4F33D
:102490000720FFF727F9E0B2FFF724F9002504E051
:1024A000705DFFF71FF9681C85B2BD42F8DB0120A3
:1024B00002490860FFF740FFBDE8F081B08121428A
:1024C00030380A2801D201207047002070470146A9
:1024D00000BF704710B5014600220020002300BF56
:1024E0001DE08C5C612C05DB8C5C662C02DC8C5C5A
:1024F000A4F157038C5C412C05DB8C5C462C02DC80
:102500008C5CA4F137038C5C302C05DB8C5C392CA3
:1025100002DC8C5CA4F1300303EB0010521C8C5CD9
:10252000002CDED110BD000070B504460D462A46D1
:10253000214602A000F05CFD70BD00005443500035
:1025400000B5014600F094FB024600BF00F090FB8E
:10255000801A8842FAD900BD10B56FF00400FFF769
:1025600021FB0A4800680A49B0FBF1F009490870EC
:102570000846007800EB4001C1EBC0104FF6FF7138
:1025800001EAC0000449088010BD000004000020DA
:1025900000127A001C0000201E0000200146114A93
:1025A00012884A434FF0E0235A6100229A611A468A
:1025B000126942F001021A6100BF4FF0E022106977
:1025C00000F001021AB100F48032002AF5D04FF079
:1025D000E022126922F001024FF0E0231A6100228A
:1025E0009A6170471E00002010B500F0C8FC012160
:1025F00003A0FFF7F1F9642102A000F047FC10BD31
:10260000415400004F4B000070B5064600F0B7FC87
:10261000012111A0FFF7E0F9642212A1124800F095
:1026200085FC0DA11048FFF789FA0446601C80B1B3
:1026300009A0FFF791FAC01C04440B48FDF7B7FF4F
:10264000C51E2B46224608493046FFF78BFA01206B
:1026500070BD0020FCE7000041542B434946535213
:10266000000000002A0000005C0C002010B500F003
:1026700086FC012104A0FFF7AFF942F2107105A01A
:1026800000F004FC10BD000041542B434949435263
:10269000000000004F4B00003EB504460CB900207E
:1026A0003EBD00F06CFC01210AA0FFF795F9642003
:1026B00001AB0AA20AA100900BA000F0FDFB0546A9
:1026C0002DB101A8FDF730FF20700120E8E70020C0
:1026D000E6E7000041542B43535100002C0000005A
:1026E0002B4353513A2000004F4B000038B50446AD
:1026F0000CB9002038BD00F042FC012108A0FFF712
:102700006BF96420234608A209A1009007A000F0FD
:10271000D3FB0546012D01D00020EBE70120E9E7BE
:1027200041542B47534E00000D0A0D0A4F4B000039
:1027300041542B47534E0D0D0A00000010B500F018
:102740001EFC012103A0FFF747F9642104A000F05B
:102750009DFB10BD41542B48545450494E495400E0
:102760004F4B000010B500F00AFC012103A0FFF759
:1027700033F9642104A000F089FB10BD41542B48BB
:102780005454505445524D004F4B000000BF054A71
:10279000128802F04002002AF9D0C2B2014B1B1D80
:1027A0001A8070470044004010B50446206807496D
:1027B0000840B0F1005F08D16068054908602068F2
:1027C000FDF718FD02480068804710BD0000FE2F8D
:1027D0003C0000202DE9F05F06460F46904600249D
:1027E000B3463D46A1461CE068784FEA002A2878A7
:1027F00050441FFA80FAAD1C2046611C8CB20E4971
:1028000021F810A0B4F5806F07D100244FF4806246
:102810005846FEF7F1FF0BF5006B09F102001FFAB5
:1028200080F9C145E0D324B1224603495846FEF75A
:10283000E3FFBDE8F09F0000005E00201CB54FF0F4
:10284000000B0025AA46002600BF00BFFEF70DFEC4
:102850008D4A8E494FF4E130FFF7A0FC01220021A0
:102860004FF4E130FFF74AFBFFF729FAFFF774FE58
:10287000FEF770FDFEF7ECFCFFF7D0FC84A0FDF73F
:10288000DFFC01E0FEF7A0FB834A42F2B32183A004
:10289000FEF75AFB0028F5D015E083A0FDF7D0FC29
:1028A0004FF4FA70FFF77AFE85A0FDF7C9FC4FF4EC
:1028B000FA70FFF773FE8648006808B9012000E04F
:1028C000002083490860FFF7FDFC4EF6177188422F
:1028D000E3D1D7E07F480088002825D07D480088D4
:1028E00083451ED17B4805884FF0000B00207949B5
:1028F000088079A0FDF7A4FC29467CA0FDF7A0FC88
:102900007FA0FDF79DFC2A4600218448FFF71EFDAD
:1029100083A0FDF795FC4FF420518048FDF766FE3B
:1029200002E06C48B0F800B009F1010000F0FF09C6
:102930000A20FFF733FEB9F11E0F10D1644800687A
:1029400008B9012000E00020614908604FF000094B
:10295000BAF1000F03D0AAF1010000F0FF0A002035
:10296000FEF794FC0446042C55D1002D4ED02E4683
:1029700072A0FDF765FC0422114601A8FFF77AFC5E
:102980009DF8040000909DF805309DF806209DF804
:1029900007106FA0FDF754FC9DF80700082831D1FF
:1029A000002707EB87004FEA802825E0B6F5A05FF7
:1029B00003DC6F480660002605E04FF4A0506C4928
:1029C0000860A6F5A056791C6AA0FDF739FC684896
:1029D000008882B241466E48FFF74CFC6D4908EB17
:1029E000010063490A686A49FFF7F4FE4FF4A051F9
:1029F0006748FDF7FBFD7F1C002ED7D166A0FDF7D1
:102A00001FFC06E068A0FDF71BFC02E06BA0FDF7D1
:102A100017FC4FF0070A032C0AD125B16DA0FDF772
:102A20000FFC002502E06FA0FDF70AFC4FF0070A3B
:102A3000022C12D171A0FDF703FC5648406800F04B
:102A40007F40B0F1006F03D15248FFF7ADFE02E0C6
:102A500071A0FDF7F5FB4FF0070A012C12D175A00C
:102A6000FDF7EEFB7A48406800F07F40B0F1005F70
:102A700003D17748FFF798FE02E076A0FDF7E0FB70
:102A80004FF0070A26E70000FD1D0008370F000879
:102A9000746573740D0A0000004C002034372E3921
:102AA000322E38312E39000057323551313238202C
:102AB000436865636B204661696C6564210D0A009B
:102AC000506C6561736520436865636B210D0A0076
:102AD0009481214222000020D3C3BBA7B3CCD0F203
:102AE000BDD3CAD5CDEAB3C9210D0A00B4FAC2EBF1
:102AF000B3A4B6C83A256442797465730D0A000020
:102B0000537461727420577269746520573235515D
:102B10003132382E2E2E2E0D0A000000001000201B
:102B20005732355131323820577269746520466901
:102B30006E6973686564210D0A000000BFAACABCF3
:102B4000B8FCD0C2B9CCBCFE2E2E2E0D0A0000005F
:102B5000617070636865636B203D20253032782595
:102B600030327825303278253032780D0A00000076
:102B70000000002053746172742052656164205714
:102B80003235513132382E2E2E2E2025640D0A007A
:102B90000038002000000108B9CCBCFEB8FCD0C24F
:102BA000CDEAB3C9210D0A00B7C7464C415348D3FB
:102BB000A6D3C3B3CCD0F2210D0A0000C3BBD3D03F
:102BC000BFC9D2D4B8FCD0C2B5C4B9CCBCFE210DAB
:102BD0000A000000B9CCBCFEC7E5B3FDCDEAB3C91D
:102BE000210D0A00C3BBD3D0BFC9D2D4C7E5B3FD02
:102BF000B5C4B9CCBCFE210D0A000000BFAACABCF6
:102C0000D6B4D0D0464C415348D3C3BBA7B4FAC2C4
:102C1000EB21210D0A000000B7C7464C415348D3B1
:102C2000A6D3C3B3CCD0F22CCEDEB7A8D6B4D0D0C6
:102C3000210D0A00BFAACABCD6B4D0D05352414D10
:102C4000D3C3BBA7B4FAC2EB21210D0A00000000D8
:102C500000100020B7C75352414DD3A6D3C3B3CC05
:102C6000D0F22CCEDEB7A8D6B4D0D0210D0A000009
:102C700001480068704700004C0000203EB5044643
:102C80000CB900203EBD00F07AF901210AA0FEF740
:102C9000A3FE642001AB0BA20CA100900AA000F0DF
:102CA0000BF905462DB101A8FDF73EFC207001206F
:102CB000E8E70020E6E7000041542B434741545425
:102CC0003F0000000D0A0D0A4F4B00002B43474107
:102CD00054543A20000000007FB5054615B9002085
:102CE00004B070BD00F04BF901210AA0FEF774FE9C
:102CF000642001AB0AA20CA100900AA000F0DCF84D
:102D000004462CB101A92846FDF72DFC0120E7E778
:102D10000020E5E741542B4350494E3F000000009E
:102D20000D0A0D0A4F4B00002B4350494E3A20002C
:102D30007CB504460D4604B10DB900207CBD00F001
:102D40001EF901210BA0FEF747FE642001AB0CA287
:102D50000DA100900BA000F0AFF806463EB1002098
:102D6000207001A8FDF7E0FB28700120E6E70020B5
:102D7000E4E7000041542B435245473F0000000068
:102D80000D0A0D0A4F4B00002C0000002DE9F04702
:102D90008AB004460D4604B11DB900200AB0BDE852
:102DA000F08700F0ECF801211CA0FEF715FE64206E
:102DB00006AB1DA21EA100901CA000F07DF80646E7
:102DC0004EB34FF001091DA106A8FEF7B7FE471E3E
:102DD00007F1040A06A8FDF7EAFBA0F10208781C37
:102DE000C0B108F10100A8B13B464A4606A904A8B3
:102DF000FEF7B8FE4346524606A902A8FEF7B2FE09
:102E000004A8FFF767FB206002A8FFF763FB2860B8
:102E10000120C3E700BF0020C0E7000041542B435E
:102E20005245473F000000000D0A0D0A4F4B0000BD
:102E30002B435245473A20322C312C00222C2200C1
:102E400038B504460CB9002038BD00F098F80121CF
:102E500008A0FEF7C1FD6420234609A20AA1009044
:102E600007A000F029F80546012D01D00020EBE76E
:102E70000120E9E741542B48545450524541440045
:102E80000D0A4F4B000000007B00000070B50446A7
:102E90000D46FDF7E3FE2A462146064800F046F8B7
:102EA00021460448FEF74AFE401C08B1012070BDCF
:102EB0000020FCE75C0C00202DE9F04705460E469B
:102EC00017469846DDF820A0FDF7C8FE5246294671
:102ED000154800F02BF829461348FEF72FFE401C3A
:102EE000E8B131461048FEF729FE044639460E483F
:102EF000FEF724FE8146601C80B109F1010068B133
:102F00003046FEF729FE0444A9F101032246064992
:102F10004046FEF727FE0120BDE8F08700BFFDF721
:102F20009DFE0020F8E700005C0C00202DE9F04138
:102F300006460F461546FFF79BFE804615E009E062
:102F4000FEF75CFDC4B204B904E021463046FEF74A
:102F5000E9FD00BFFEF7D8FC0028F1DC3946304619
:102F6000FEF7ECFD401C00B105E0FFF781FEA0EB91
:102F70000800A842E3D300BF0120BDE8F08110B5EE
:102F8000FDF772FE10BD000038B504460094FFF74F
:102F9000F6FF012105A0FEF7F5FC00216846FEF7CB
:102FA0001BFD642104A0FFF771FF38BD41542B4382
:102FB0004950484541443D004F4B000038B5044658
:102FC0000094FFF7DCFF012105A0FEF7DBFC0021E8
:102FD0006846FEF701FD642104A0FFF757FF38BDE6
:102FE00041542B4349504D4F44453D004F4B000049
:102FF000F8B506460C4615460095FDF72FFEFFF77F
:10300000BEFF012112A0FEF7BDFC01213046FEF7F4
:10301000B9FC012112A0FEF7B5FC01212046FEF704
:10302000B1FC01210EA0FEF7ADFC00216846FEF7C1
:10303000A9FC012109A0FEF7CFFC42F2107109A002
:10304000FFF724FF08B10120F8BD0020FCE70000D5
:1030500041542B43495053544152543D22000000E7
:10306000222C2200434F4E4E4543540038B50446AF
:103070000094FFF784FF012106A0FEF783FC0021E6
:103080006846FEF7A9FC41F2883105A0FFF7FEFE75
:1030900038BD000041542B43504F57443D000000C1
:1030A0004E4F524D414C20504F57455220444F57A0
:1030B0004E00000010B588B00446FFF760FF2246BE
:1030C00006A16846FDF7C8F801216846FEF784FCB2
:1030D000642105A0FFF7DAFE08B010BD41542B4370
:1030E0005245473D256400004F4B000010B5044693
:1030F000FFF745FF012108A0FEF744FC012120460F
:10310000FEF740FC012106A0FEF766FC642105A045
:10311000FFF7BCFE10BD000041542B435354543DF7
:10312000220000004F4B000030B589B004460D4628
:10313000FFF725FF224609A101A8FDF78DF801211F
:1031400001A8FEF749FC42F2107109A0FFF79EFEAC
:1031500010B9002009B030BD0120FBE741542B48D5
:10316000545450414354494F4E3D256400000000E3
:103170003230300030B5ADF5017D04460D46FFF725
:10318000FEFE2B46224607A101A8FDF765F80121A6
:1031900001A8FEF721FC642108A0FFF777FE0DF5DA
:1031A000017D30BD41542B48545450504152413D53
:1031B000222573222C222573220000004F4B000091
:1031C000F0B58BB004460D4616461F46FFF7D7FEF6
:1031D0002B46224607A103A8CDE90067FDF73CF87E
:1031E000012103A8FEF7F8FB642109A0FFF74EFEBA
:1031F0000BB0F0BD41542B53415042523D25642C3D
:1032000025642C222573222C222573220000000025
:103210004F4B000030B589B004460D46FFF7AFFEB6
:103220002B46224607A101A8FDF716F8012101A8A7
:10323000FEF7D2FB41F2883106A0FFF727FE09B066
:1032400030BD000041542B53415042523D25642C67
:10325000256400004F4B000002480068401C0149F3
:10326000086070474C00002010B500290AD008788B
:10327000002807D005487844FDF706FA002801D059
:10328000002010BD0248784410BD0000EE00000090
:10329000E6000000303132333435363738394142B8
:1032A00043444546403058003031323334353637A8
:1032B0003839616263646566403078000400000854
:1032C00000000000000000020001000010000000EB
:1032D000687474703A2F2F6170696C6F63617465E4
:1032E0002E616D61702E636F6D2F706F73697469DD
:1032F0006F6E3F616363657373747970653D3026EB
:10330000696D65693D25732663646D613D30266294
:1033100074733D3436302C30302C25642C25642CCD
:1033200025642673657276657269703D2573266F14
:1033300075747075743D6A6F736E266B65793D2583
:103340007300000074340008000000205C000000DE
:103350006C010008D03400085C000020A46B000061
:10336000880100081001000043000000F8FFFFFF83
:103370000040404040404040404041414141414088
:10338000404040404040404040404040404040403D
:1033900040050202020202020202020202020202CC
:1033A00002202020202020202020200202020202D1
:1033B0000202909090909090101010101010101029
:1033C0001010101010101010101010100202020235
:1033D0000202888888888888080808080808080879
:1033E0000808080808080808080808080202020275
:1033F000400000000000000000000000000000008D
:1034000000000000000000000000000000000000BC
:1034100000000000000000000000000000000000AC
:10342000000000000000000000000000000000009C
:10343000000000000000000000000000000000008C
:10344000000000000000000000000000000000007C
:10345000000000000000000000000000000000006C
:10346000000000000000000000000000000000005C
:10347000000000000000000000A24A04000000005C
:10348000000000000102030406070809010017EF0D
:10349000000000000000000000000000000000002C
:1034A00001020304010203040607080902040608D6
:1034B000000000000000000000000000000000000C
:1034C00000000000000000000000000000000000FC
:0400000508000131BD
:00000001FF
