:020000040800F2
:10000000A00E00203D140008E9050008EB050008DB
:10001000EF050008F3050008F705000800000000E0
:10002000000000000000000000000000FB050008C8
:10003000FD05000800000000FF050008010600089B
:1000400057140008571400085714000857140008E4
:1000500057140008571400085714000857140008D4
:1000600057140008571400085714000857140008C4
:1000700057140008571400085714000857140008B4
:1000800057140008571400085714000857140008A4
:100090005714000857140008571400085714000894
:1000A0005714000857140008571400085714000884
:1000B0005714000857140008571400085714000874
:1000C0005714000857140008571400085714000864
:1000D00057140008030600083306000857140008E8
:1000E0005714000857140008571400085714000844
:1000F0005714000857140008571400085714000834
:100100005714000857140008571400085714000823
:100110005714000857140008571400085714000813
:100120005714000857140008571400085714000803
:1001300000F002F800F042F80AA090E8000C8244B7
:100140008344AAF10107DA4501D100F037F8AFF294
:10015000090EBAE80F0013F0010F18BFFB1A43F0A5
:1001600001031847202D0000402D0000103A24BF45
:1001700078C878C1FAD8520724BF30C830C144BF0C
:1001800004680C607047000000230024002500264E
:10019000103A28BF78C1FBD8520728BF30C148BFEA
:1001A0000B607047642902F03F84782902F078845C
:1001B000002070471FB51FBD10B510BD02F00EFE28
:1001C0001146FFF7F7FF00F00DF802F02CFE03B424
:1001D000FFF7F2FF03BC00F00BFF000080F308887C
:1001E000704700001CB54FF0000B0025AA46002602
:1001F00000BF00BF4FF4C06001F040F9002211467B
:100200004FF4E13000F003FF012200214FF4E13010
:1002100000F090FF00F082FE00F002FB00F026FBF1
:1002200000F0E8FC7CA002F0CBFB15E07CA002F023
:10023000C7FB4FF4FA7000F0AEFE7FA002F0C0FBE7
:100240004FF4FA7000F0A7FE7F48006808B901205B
:1002500000E000207C49086000F0ACFC4EF617710D
:100260008842E3D1D7E079480088002825D0774834
:10027000008883451ED1754805884FF0000B00208B
:100280007249088072A002F09BFB294675A002F01B
:1002900097FB79A002F094FB2A4600217D4800F0EC
:1002A000A4FD7DA002F08CFB4FF44041794802F0A0
:1002B000BFFC02E06548B0F800B009F1010000F0B1
:1002C000FF090A2000F067FEB9F11E0F10D15E4849
:1002D000006808B9012000E000205B4908604FF089
:1002E0000009BAF1000F03D0AAF1010000F0FF0AE3
:1002F000002000F0D5FA0446042C55D1002D4ED034
:100300002E466CA002F05CFB0422114601A800F00E
:10031000D0FC9DF8040000909DF805309DF8062063
:100320009DF8071068A002F04BFB9DF80700082815
:1003300031D1002707EB87004FEA802825E0B6F58A
:10034000A05F03DC68480660002605E04FF4A0507B
:1003500065490860A6F5A056791C64A002F030FB40
:100360006148008882B24146674800F0A2FC6749B4
:1003700008EB01005C490A68634902F0D5FA4FF4C2
:10038000A051614802F054FC7F1C002ED7D160A020
:1003900002F016FB06E062A002F012FB02E065A08C
:1003A00002F00EFB4FF0070A032C0AD125B167A01B
:1003B00002F006FB002502E068A002F001FB4FF00E
:1003C000070A022C12D16BA002F0FAFA4F484068DB
:1003D00000F07F40B0F1006F03D14C4802F0D5FA35
:1003E00002E06BA002F0ECFA4FF0070A012C12D1E8
:1003F0006EA002F0E5FA7448406800F07F40B0F16A
:10040000005F03D1704802F0C0FA02E06FA002F072
:10041000D7FA4FF0070A26E77465737400000000EE
:100420005732355131323820436865636B2046615D
:10043000696C656421000000506C65617365204340
:100440006865636B21000000948121422200002036
:10045000D3C3BBA7B3CCD0F2BDD3CAD5CDEAB3C901
:10046000210D0A00B4FAC2EBB3A4B6C83A2564421F
:10047000797465730D0A00005374617274205772A9
:1004800069746520573235513132382E2E2E2E0D9B
:100490000A00000000100020573235513132382058
:1004A00057726974652046696E6973686564210DC9
:1004B0000A000000BFAACABCB8FCD0C2B9CCBCFEBE
:1004C0002E2E2E0D0A000000617070636865636B4C
:1004D000203D20253032782530327825303278257D
:1004E0003032780D0A000000000000205374617261
:1004F00074205265616420573235513132382E2EC6
:100500002E2E2025640D0A0000D0002000000108D6
:10051000B9CCBCFEB8FCD0C2CDEAB3C9210D0A00EB
:10052000B7C7464C415348D3A6D3C3B3CCD0F2216E
:100530000D0A0000C3BBD3D0BFC9D2D4B8FCD0C20F
:10054000B5C4B9CCBCFE210D0A000000B9CCBCFE7C
:10055000C7E5B3FDCDEAB3C9210D0A00C3BBD3D0B3
:10056000BFC9D2D4C7E5B3FDB5C4B9CCBCFE210D1B
:100570000A000000BFAACABCD6B4D0D0464C415332
:1005800048D3C3BBA7B4FAC2EB21210D0A00000077
:10059000B7C7464C415348D3A6D3C3B3CCD0F22CF3
:1005A000CEDEB7A8D6B4D0D0210D0A00BFAACABCEF
:1005B000D6B4D0D05352414DD3C3BBA7B4FAC2EB8B
:1005C00021210D0A0000000000100020B7C753527F
:1005D000414DD3A6D3C3B3CCD0F22CCEDEB7A8D630
:1005E000B4D0D0210D0A0000704700BFFEE700BF65
:1005F000FEE700BFFEE700BFFEE7704770477047A9
:1006000070470C49098801F0200189B10949091D89
:100610000988C8B208490988B1F5404F08DA074986
:10062000054A1288885404490988491C024A1180E5
:100630007047704700380140220000200010002061
:100640000CB50020019000906C48006840F48030A8
:100650006A49086000BF6948006800F400300090F3
:100660000198401C0190009818B90198B0F5A06F4E
:10067000F1D16248006800F4003010B10120009010
:1006800001E0002000900098012843D15C480068F8
:1006900040F010005A4908600846006820F0030046
:1006A00008600846006840F002000860534840684F
:1006B000524948600846406848600846406840F42F
:1006C000806048600846406820F47C104860084616
:1006D000406840F4E81048600846006840F08070C8
:1006E000086000BF4548006800F000700028F9D09D
:1006F0004248406820F0030040494860084640688E
:1007000040F00200486000BF3C48406800F00C0028
:100710000828F9D10CBD10B5FFF792FF10BD10B538
:100720003648006840F001003449086008464068D7
:100730003449084031494860084600683249084059
:100740002E4908600846006820F4802008600846AA
:10075000406820F4FE0048604FF41F008860FFF7F7
:10076000DAFF4FF000602949086010BD10B5002184
:1007700000200022214B5B6803F00C0121B1042909
:1007800006D0082928D107E0214B224C236027E01E
:100790001F4B204C236023E0184B5B6803F4701060
:1007A000164B5B6803F48032022303EB904022B9BE
:1007B000194B4343174C23600DE0104B5B6803F467
:1007C000003323B1144B4343124C236003E0104B1E
:1007D0004343104C236003E00D4B0E4C236000BFDD
:1007E00000BF064B5B68C3F303130C4CE15C094B81
:1007F0001B68CB40074C236010BD00000010024076
:10080000002002400000FFF8FFFFF6FE08ED00E0C8
:1008100000127A000400002000093D0008000020BA
:1008200008B50121482001F0B3F92020ADF80000FF
:1008300010208DF8030003208DF802006946094856
:1008400000F0EAFE2021074800F093FF2020ADF8D9
:1008500000006946044800F0DFFE2021024800F055
:1008600088FF08BD000C01400018014008B50121B7
:10087000442001F08DF91C20ADF8000048208DF8CF
:1008800003006946354800F0C7FE0120ADF80000BE
:1008900028208DF803006946314800F0BDFE08BDF0
:1008A00010B5044614B101202E4908702D48007877
:1008B000002837D01021294800F041FF78B10821E5
:1008C000264800F03CFF50B10421244800F037FFD7
:1008D00028B10121224800F032FF012822D10A204C
:1008E00000F059FB00201F49087010211B4800F040
:1008F00026FF08B9012010BD0821184800F01FFF8D
:1009000008B90220F7E70421144800F018FF08B9DD
:100910000320F0E70121124800F011FF01281BD14C
:100920000420E8E710210D4800F009FF012813D149
:1009300008210A4800F003FF01280DD104210748CF
:1009400000F0FDFE012807D10121054800F0F7FE67
:1009500010B90120034908700020CCE700180140BD
:1009600000080140180000200146088870472DE962
:10097000F04105460E461746002407E036F81410ED
:10098000284601F0D4FCAD1C601C84B2BC42F5DBEF
:10099000BDE8F08130B503460C461546002207E05D
:1009A0001846FFF7E1FF24F812009B1C501C82B28E
:1009B000AA42F5DB30BD2DE9F05F80468A46174636
:1009C000B8F1006F02D33748804501D3BDE8F09FEE
:1009D00001F065FBA8F1006B4FEADB25CBF3490979
:1009E000C9F58064A74200DC3C464DE04FF0006151
:1009F00001EBC5204A142C49FFF7CCFF00260BE081
:100A000009EB0600284931F810004FF6FF718842C3
:100A100000D003E0701C86B2A642F1DB00BFA64204
:100A20001BDA4FF0006101EBC52001F07DFB0026D1
:100A300008E03AF8160006EB09011B4A22F81100FB
:100A4000701C86B2A642F4DB4FF0006101EBC520BA
:100A50004A141549FFF78BFF04E0224651464046F1
:100A6000FFF785FFA74200D10FE06D1C4FF0000992
:100A70000AEB440AA044381B87B2B7F5806F02DD49
:100A80004FF4806400E03C46B0E700BF01F013FB88
:100A900000BF9BE713B50446012201A92046FFF7DA
:100AA0008AFF1CBD000008084000002070B5054604
:100AB000002405E0601CC4B2C82C01DD002070BD1C
:100AC00002213A4801F0F9FE0028F3D029463748C0
:100AD00001F0A0FE002405E0601CC4B2C82C01DDBA
:100AE0000020ECE70121314801F0E7FE0028F3D0B7
:100AF0002E4801F091FEC0B2E1E700B587B00121B8
:100B0000082001F045F80121880301F04EF84FF468
:100B10006040ADF8180018208DF81B0003208DF8F8
:100B20001A0006A9224800F077FD4FF460412048E2
:100B300000F01FFE0020ADF804004FF48270ADF805
:100B400006000020ADF808000220ADF80A000120E0
:100B5000ADF80C004002ADF80E003820ADF81000E2
:100B60000020ADF812000720ADF8140001A90F48CD
:100B700001F07AFD01210D4801F01BFEFF20FFF777
:100B800095FF07B000BD10B50446084800884FF631
:100B9000C77108400549088008460088204308803E
:100BA0000121024801F005FE10BD000000380040A0
:100BB000000C014010B500240020D14908609020AD
:100BC000FFF774FF0020FFF771FF0020FFF76EFFB3
:100BD0000020FFF76BFFFF20FFF768FF44EA0024C7
:100BE000FF20FFF763FF04430120C649C1F8B001AD
:100BF000204610BD08B50121082000F0C9FF4FF4C0
:100C00008050ADF8000010208DF8030003208DF80F
:100C100002006946BC4800F0FFFC4FF48051BA481E
:100C200000F0A7FD0120B6490860FFF766FF00202D
:100C3000FFF7A9FFFFF7BEFFB449088008BD10B554
:100C400000240020AE4908600520FFF72FFFFF2099
:100C5000FFF72CFF04460120AA49C1F8B001204645
:100C600010BD10B504460020A54908600120FFF71B
:100C70001DFF2046FFF71AFF0120A249C1F8B0016D
:100C800010BD10B500209E4908600620FFF70EFF3A
:100C900001209C49C1F8B00110BD10B50020984951
:100CA00008600420FFF702FF01209649C1F8B00157
:100CB00010BD2DE9F04106460C461746002090492C
:100CC00008600320FFF7F2FEC4F30740FFF7EEFED3
:100CD000C4F30720FFF7EAFEE0B2FFF7E7FE0025C6
:100CE00005E0FF20FFF7E2FE7055681C85B2BD42AB
:100CF000F7DB012082490860BDE8F08110B500BF34
:100D0000FFF79DFF00F001000028F9D110BD2DE98B
:100D1000F04106460C461746FFF7B3FF002078491E
:100D200008600220FFF7C2FEC4F30740FFF7BEFED3
:100D3000C4F30720FFF7BAFEE0B2FFF7B7FE0025C5
:100D400004E0705DFFF7B2FE681C85B2BD42F8DBBF
:100D500001206B490860FFF7D1FFBDE8F0812DE964
:100D6000F04107460E461446F0B2C0F58075AC421D
:100D700000DC254612E02A4631463846FFF7C7FF19
:100D8000AC4200D10BE02F442E44601B84B2B4F57A
:100D9000807F02DD4FF4807500E02546EBE700BF61
:100DA000BDE8F08110B50446214659A001F008FEC7
:100DB0002403FFF766FFFFF7A1FF002050490860FA
:100DC0002020FFF773FEC4F30740FFF76FFEC4F364
:100DD0000720FFF76BFEE0B2FFF768FE01204949EC
:100DE000C1F8B001FFF78AFF10BD2DE9F05F814621
:100DF0000F461646DFF820B14FEA1738C7F30B0A43
:100E0000CAF58054A64200DC344644E04FEA08317B
:100E10004FF480525846FFF74CFF002508E00AEBDC
:100E200005001BF80000FF2800D003E0681C85B215
:100E3000A542F4DB00BFA54216DA4046FFF7B2FF39
:100E4000002507E019F8050005EB0A010BF8010081
:100E5000681C85B2A542F5DB4FEA08314FF4805299
:100E60005846FFF77CFF04E0224639464846FFF724
:100E700076FFA64200D10FE008F101084FF0000A0A
:100E8000A1442744301B86B2B6F5805F02DD4FF4E3
:100E9000805400E03446B9E700BFBDE8F09F10B5CC
:100EA000FFF7EFFEFFF72AFF002015490860C72073
:100EB000FFF7FCFD01201349C1F8B001FFF71EFF49
:100EC00010BD10B500200E490860B920FFF7EEFDF7
:100ED00001200C49C1F8B001032000F038F810BD22
:100EE00010B5002006490860AB20FFF7DFFD0120A8
:100EF0000449C1F8B001032000F029F810BD00003A
:100F0000B081214200802142000C01401A000020E3
:100F100066653A25780D0A0000E4002010B56FF0F0
:100F2000040000F0FAFA2E4800682E49B0FBF1F0F8
:100F30002D4908700846007800EB4001C1EBC01055
:100F40004FF6FF7101EAC0002849088010BD014634
:100F5000254A12784A434FF0E0235A6100229A61F1
:100F60001A46126942F001021A6100BF4FF0E022F6
:100F7000106900F001021AB100F48032002AF5D0A5
:100F80004FF0E022126922F001024FF0E0231A61D3
:100F900000229A6170470146144A12884A434FF072
:100FA000E0235A6100229A611A46126942F0010256
:100FB0001A6100BF4FF0E022106900F001021AB17F
:100FC00000F48032002AF5D04FF0E022126922F0BE
:100FD00001024FF0E0231A6100229A61704700007D
:100FE0000400002000127A001C0000201E000020D7
:100FF000014600BF704700BFFE4A128802F040025F
:10100000002AF9D0C2B2FB4B1B1D1A80704770B585
:1010100086B004460E4615460121880300F0B8FD4F
:101020000121042000F0B4FD4FF40070ADF804007D
:1010300003208DF8060018208DF8070001A9EE485E
:1010400000F0EAFA4FF48060ADF8040004208DF857
:10105000070001A9E84800F0DFFA25208DF800001C
:10106000F0B28DF80100E8B28DF8020001208DF891
:101070000300684600F007FA02940020ADF80C0067
:10108000ADF80E00ADF81000ADF814000C20ADF86E
:10109000120002A9D94800F022FE012240F2255197
:1010A000D64800F0B4FE0121D44800F0A4FE40214F
:1010B000D24800F088FF06B070BD10B5044600BFEE
:1010C0004021CE4800F072FF0028F9D02146CB48DD
:1010D00000F0FEFE10BD10B504460BE000BF40213D
:1010E000C64800F063FF0028F9D014F8011BC3487C
:1010F00000F0EEFE20780028F0D110BD70B5054656
:101100000E4600BF4021BD4800F050FF0028F9D036
:1011100000240CE0295DB94800F0DAFE00BF402150
:10112000B64800F043FF0028F9D0601CC4B2B442B6
:10113000F0DB70BD70B586B004460E461546012141
:10114000480400F032FD0121042000F021FD0420BC
:10115000ADF8040003208DF8060018208DF8070074
:1011600001A9A54800F058FA0820ADF804000420B1
:101170008DF8070001A9A04800F04EFA26208DF84E
:101180000000F0B28DF80100E8B28DF802000120F5
:101190008DF80300684600F076F902940020ADF85F
:1011A0000C00ADF80E00ADF81000ADF814000C20E6
:1011B000ADF8120002A98F4800F091FD012240F223
:1011C00025518C4800F023FE01218A4800F013FECF
:1011D0004021884800F0F7FE06B070BD10B5044607
:1011E00000BF4021834800F0E1FE0028F9D02146ED
:1011F000804800F06DFE10BD10B504460BE000BF46
:1012000040217C4800F0D2FE0028F9D014F8011BE0
:10121000784800F05DFE20780028F0D110BD70B550
:1012200005460E4600BF4021724800F0BFFE002870
:10123000F9D000240CE0295D6E4800F049FE00BFA3
:1012400040216C4800F0B2FE0028F9D0601CC4B206
:10125000B442F0DB70BD70B586B004460E4615464C
:101260000121880400F0A1FC0121082000F090FC7D
:101270004FF48060ADF8040003208DF806001820BC
:101280008DF8070001A95E4800F0C6F94FF4006030
:10129000ADF8040004208DF8070001A9584800F0BB
:1012A000BBF927208DF80000F0B28DF80100E8B2FC
:1012B0008DF8020001208DF80300684600F0E3F885
:1012C00002940020ADF80C00ADF80E00ADF810004F
:1012D000ADF814000C20ADF8120002A9494800F046
:1012E000FEFC012240F22551464800F090FD01210C
:1012F000444800F080FD4021424800F064FE06B002
:1013000070BD10B5044600BF40213E4800F04EFEBF
:101310000028F9D021463B4800F0DAFD10BD10B599
:1013200004460BE000BF4021364800F03FFE002895
:10133000F9D014F8011B334800F0CAFD20780028CA
:10134000F0D110BD70B505460E4600BF40212D48B6
:1013500000F02CFE0028F9D000240CE0295D29487B
:1013600000F0B6FD00BF4021264800F01FFE002817
:10137000F9D0601CC4B2B442F0DB70BD10B50446B5
:101380000BE000BF40211B4800F010FE0028F9D000
:1013900014F8011B174800F09BFD20780028F0D1BD
:1013A00000BF4021134800F001FE0028F9D00D21B4
:1013B000104800F08DFD00BF40210E4800F0F6FD02
:1013C0000028F9D00A210B4800F082FD10BD10B5AD
:1013D00004460BE000BF40210A4800F0E7FD00286A
:1013E000F9D014F8011B074800F072FD207800289E
:1013F000F0D109E0004400400008014000380140FD
:10140000000C01400048004000BF40210A4800F0A5
:10141000CDFD0028F9D00D21074800F059FD00BF8F
:101420004021054800F0C2FD0028F9D00A210248F9
:1014300000F04EFD10BD0000004800400948804704
:1014400009480047FEE7FEE7FEE7FEE7FEE7FEE7A6
:10145000FEE7FEE7FEE7FEE704480549054A064BBE
:10146000704700001F07000831010008A008002095
:10147000A00E0020A00A0020A00A0020314901434C
:10148000314A1160704770B5002100230F22C478E3
:1014900004B32D4C246804F4E064C4F5E064210A2C
:1014A000C1F10403CA40447804FA03F1847814407B
:1014B00021430901254C0678A155047804F01F0545
:1014C0000124AC4005786D11AD0005F1E025C5F8AB
:1014D000004109E0047804F01F050124AC401C4DD4
:1014E0000678761145F8264070BD1A4A0A40024334
:1014F000154B1B1F1A60704739B1134A121D126831
:101500000243114B1B1D1A6006E00F4A121D1268A0
:1015100082430D4B1B1D1A607047042808D14FF001
:10152000E021096941F004014FF0E022116107E078
:101530004FF0E021096921F004014FF0E022116130
:10154000704700000000FA050CED00E000E400E048
:1015500080E100E080FFFF1F10B50446CC488442C4
:1015600008D10121042000F02DFB0021042000F00F
:1015700029FB46E0C748844208D10121082000F039
:1015800021FB0021082000F01DFB3AE0C248844204
:1015900008D10121102000F015FB0021102000F0DF
:1015A00011FB2EE0BD48844208D10121202000F02B
:1015B00009FB0021202000F005FB22E0B84884420E
:1015C00008D10121402000F0FDFA0021402000F068
:1015D000F9FA16E0B348844208D10121802000F0D6
:1015E000F1FA0021802000F0EDFA0AE0AE488442D2
:1015F00007D10121801500F0E5FA0021A01500F0C7
:10160000E1FA10BD10B50121084600F0DBFA002117
:10161000012000F0D7FA10BD2DE9F0410246002567
:101620000026002000230024002791F803C00CF0BE
:101630000F0591F803C00CF0100CBCF1000F03D0A3
:1016400091F802C04CEA050591F800C0BCF1000F0A
:1016500031D0146800202BE04FF0010C0CFA00F39D
:10166000B1F800C00CEA03069E4220D183004FF07F
:101670000F0C0CFA03F7BC4305FA03FC4CEA040414
:1016800091F803C0BCF1280F06D14FF0010C0CFA01
:1016900000FCC2F814C00AE091F803C0BCF1480F86
:1016A00005D14FF0010C0CFA00FCC2F810C0401C30
:1016B0000828D1D31460B1F800C0BCF1FF0F34DDAD
:1016C000546800202EE000F1080C4FF0010808FAE1
:1016D0000CF3B1F800C00CEA03069E4221D183004E
:1016E0004FF00F0C0CFA03F7BC4305FA03FC4CEA6D
:1016F000040491F803C0BCF1280F05D100F1080CD7
:1017000008FA0CF8C2F8148091F803C0BCF1480F35
:1017100007D100F1080C4FF0010808FA0CF8C2F8E4
:101720001080401C0828CED35460BDE8F0814FF6ED
:10173000FF710180022181700421C170704702464F
:10174000002093680B400BB1012000E0002070479F
:101750000146886880B2704702460020D3680B407B
:101760000BB1012000E0002070470146C86880B23C
:10177000704701617047416170470AB1016100E043
:1017800041617047C16070474FF480320A43826103
:101790008161826182698269704702460020434B01
:1017A00018684FF68073184040EA021008433F4B18
:1017B000186070473E49C8617047F0B50A4600237B
:1017C00000240021002500F00046B6F1004F02D1B0
:1017D000364EF16901E0354E7168C0F3034583B2BE
:1017E00000F44016B6F5401F08D121F070612F4E6D
:1017F000766826F070662D4F7E6012E000F4801649
:10180000B6F5801F06D1032606FA05F4A14341F080
:10181000706106E0460D360103FA06F6B14341F069
:10182000706122B1460D360103FA06F6314300F02D
:101830000046B6F1004F02D11C4EF16101E01B4E93
:101840007160F0BD30B500228B071C0F0F2303FA27
:1018500004F2164B08338C1053F824309343134C86
:1018600008348D1044F8253023468C1053F824306A
:101870008C07240F00FA04F423430C4C08348D1019
:1018800044F8253030BD0A49DC310860704700005B
:1018900000080140000C014000100140001401400C
:1018A00000180140001C01400020014000000140E0
:1018B00000002042DF48006840F00100DD49086078
:1018C00008464068DC490840DA4948600846006834
:1018D000DA490840D74908600846006820F48020AB
:1018E00008600846406820F4FE0048604FF41F007E
:1018F00088607047CF49096821F48031CD4A116072
:101900001146096821F480211160B0F5803F03D0B1
:10191000B0F5802F0ED106E0C649096841F4803148
:10192000C44A116007E0C349096841F4A021C14AD3
:10193000116000E000BF00BF704710B501460022F3
:10194000002300204A11012A02D1BA4C236806E084
:10195000022A02D1B74C236A01E0B64C636A01F057
:101960001F02012494401C400CB1012000E0002023
:1019700010BD38B5002000900024002500BF3120A4
:10198000FFF7DBFF05460098401C00900098B0F57B
:10199000A06F01D0002DF2D03120FFF7CEFF08B1AB
:1019A000012400E00024204638BD01460020A14A61
:1019B000106820F0F80040EAC10010607047A049AC
:1019C00008607047024600209A4B586820F47C104B
:1019D00042EA01031843974B5860704798490866DC
:1019E000704701460020934A506820F003000843E6
:1019F000506070478F48406800F00C007047014607
:101A000000208C4A506820F0F00008435060704776
:101A100001460020874A506820F4E0600843506087
:101A2000704701460020834A506820F4605040EA25
:101A3000C1005060704729B17E4A527A02437D4B03
:101A40005A7204E07B4A527A82437A4B5A72704748
:101A50007B49D8310860704701460020754A5068BC
:101A600020F440400843506070470021714A203202
:101A70001170704A82F82010012802D004280AD17F
:101A800004E001216B4A2032117005E00521694A0A
:101A90002032117000E000BF00BF70476949086044
:101AA00070476449096A0143624A11627047654997
:101AB00044390860704730B500210022002400231B
:101AC0005C4D6D6805F00C0121B1042905D0082991
:101AD00023D105E05C4D056022E05B4D05601FE011
:101AE000544D6D6805F47012524D6D6805F48034E4
:101AF000022505EB92421CB9544D554305600BE09D
:101B00004C4D6D6805F400351DB1504D55430560D1
:101B100002E04D4D5543056002E04B4D056000BFAE
:101B200000BF444D6D6805F0F0010909484D6B5C3C
:101B30000568DD4045603F4D6D6805F4E061090AC8
:101B4000434D6B5C4568DD4085603A4D6D6805F43A
:101B50006051C90A3E4D6B5C4568DD40C560354D3E
:101B60006D6805F44041890B3A4D6B5CC568B5FB67
:101B7000F3F5056130BD29B12E4A526902432D4B60
:101B80005A6104E02B4A526982432A4B5A617047DA
:101B900029B1284A92690243264B9A6104E0254AFA
:101BA00092698243234B9A61704729B1214AD269D5
:101BB0000243204BDA6104E01E4AD26982431D4B86
:101BC000DA61704729B11B4AD2680243194BDA60C7
:101BD00004E0184AD2688243164BDA60704729B194
:101BE000144A12690243134B1A6104E0114A126944
:101BF0008243104B1A6170471249403908607047A0
:101C00000F49C86470470B49C87170470948406A5A
:101C100040F0807007494862704701460020054A3D
:101C200092680A400AB1012000E000207047014993
:101C300088727047001002400000FFF8FFFFF6FEB8
:101C4000000042428004424200127A0000093D0036
:101C5000280000203800002010B50446FB488442CC
:101C600009D101218803FFF7ADFF00214FF4804027
:101C7000FFF7A8FF32E0F648844209D10121480469
:101C8000FFF7ADFF00214FF40030FFF7A8FF25E07C
:101C9000F048844209D101218804FFF7A0FF002108
:101CA0004FF48020FFF79BFF18E0EB48844209D1F6
:101CB0000121C804FFF793FF00214FF40020FFF734
:101CC0008EFF0BE0E548844208D101210805FFF7AB
:101CD00086FF00214FF48010FFF781FF10BD2DE932
:101CE000F04786B005460E460024A24600BFA14636
:101CF0000027B08900B100BF2F462C8A4CF6FF7038
:101D00000440F08804432C82AC894EF6F310044062
:101D1000B08831890843718908430443AC81AC8A97
:101D20004FF6FF400440B0890443AC8201A8FFF79E
:101D3000C2FEC648874202D1DDF810A001E0DDF8FE
:101D40000CA0A88900F4004040B10AEBCA0000EBE7
:101D50000A1031684900B0FBF1F807E00AEBCA004D
:101D600000EB0A1031688900B0FBF1F86420B8FB81
:101D7000F0F004012009642101FB1089A88900F416
:101D8000004040B1322000EBC900B0FBF1F000F0A0
:101D90000700044308E0322000EB09106421B0FB87
:101DA000F1F000F00F0004432C8106B0BDE8F0878D
:101DB0004FF41651016000218180C18001810C2106
:101DC000418100218181704710B502460020108AB0
:101DD0004FF2FF0318400B884C8823438C88234321
:101DE000CC8823431843108210BD0021018041801C
:101DF0008180C180704721B1828942F40052828182
:101E000004E082894DF6FF731A4082817047F0B575
:101E10000346002400260025002040F66A17B94238
:101E200000D100BF1846C1F3421401F01F0601277C
:101E300007FA06F5012C01D10C3004E0022C01D187
:101E4000103000E014301AB107682F43076002E039
:101E50000768AF430760F0BD1AB1838A0B438382E2
:101E600002E0838A8B4383827047028A4FF6F073C5
:101E70001A400282028A0A430282704782894FF224
:101E8000FF731A40828182890A438281704721B19F
:101E9000828942F00202828104E082894FF6FD735A
:101EA0001A4082817047028A4FF6DF731A4002821D
:101EB000028A0A430282704721B1028A42F48042B8
:101EC000028204E0028A4BF6FF731A4002827047D6
:101ED000C1F308028280704701468888C0F3080079
:101EE0007047818941F0010181817047028BD2B234
:101EF0000283028B42EA012202837047028B02F4C2
:101F00007F420283028B0A430283704721B1828A97
:101F100042F02002828204E0828A4FF6DF731A4088
:101F20008282704721B1828A42F01002828204E0EC
:101F3000828A4FF6EF731A408282704721B1828AFB
:101F400042F00802828204E0828A4FF6F7731A4058
:101F50008282704721B1828942F40042828103E08B
:101F60008289C2F30E028281704721B1828A42F4D3
:101F70000062828204E0828A4FF2FF731A408282FA
:101F80007047828A4FF6FB731A408282828A0A4324
:101F90008282704721B1828A42F00202828204E08A
:101FA000828A4FF6FD731A408282704702460020F3
:101FB000B1F5007F00D100BF13880B400BB10120A9
:101FC00000E00020704701F40072B2F5007F00D1FC
:101FD00000BFCA430280704770B502460024002348
:101FE0000025002040F66A16B14200D100BFC1F3BF
:101FF000421501F01F03012606FA03F3012D02D159
:102000009689334006E0022D02D1168A334001E062
:10201000968A33400C12012606FA04F416883440DE
:1020200013B10CB1012000E0002070BD10B50022FA
:10203000002340F66A14A14200D100BF0A12012415
:102040009440A3B2DC43048010BD0000003801407E
:102050000044004000480040004C00400050004058
:1020600001460020FE4A106800F038000843106066
:102070007047FB49096821F00801F94A11601146CF
:102080000968014311607047F549096821F01001A2
:10209000F34A116011460968014311607047F14825
:1020A000EF494860F04848607047EE48EC494860A6
:1020B000ED4848607047EA48006940F08000E84910
:1020C00008617047E648006940F08000E449086113
:1020D00070470420E249C96801F0010109B10120FB
:1020E0000EE0DF49C96801F0040109B1022007E0F0
:1020F000DB49C96801F0100109B1032000E00420A8
:10210000704700B502460423FFF7E3FF034603E0F0
:10211000FFF7DFFF0346521E012B01D1002AF7D142
:1021200002B90523184600BD30B5044604254FF416
:102130003020FFF7E6FF0546042D17D1C848006997
:1021400040F00200C649086108464461006940F059
:10215000400008614FF43020FFF7D3FF0546C04828
:10216000006941F6FD710840BD490861284630BD4F
:1021700010B504244FF43020FFF7C3FF0446042CAD
:1021800016D1B748006940F00400B5490861084617
:10219000006940F0400008614FF43020FFF7B1FFC4
:1021A0000446AF48006941F6FB710840AC4908613C
:1021B000204610BD00B502460423FFF78AFF034600
:1021C00003E0FFF786FF0346521E012B01D1002AD0
:1021D000F7D102B90523184600BD10B504244FF409
:1021E0003020FFF7E7FF0446042C16D19C48006915
:1021F00040F004009A4908610846006940F0400038
:1022000008614FF43020FFF7D5FF04469448006979
:1022100041F6FB71084092490861204610BD00203C
:102220008F49C96901F0020109B1012000E00020D5
:10223000704730B5A5250424FFF7F1FF00B1002554
:102240004FF43020FFF75DFF0446042C3AD1854857
:1022500083498860844888600846006940F020000F
:1022600008610846006940F0400008614FF43020E2
:10227000FFF747FF0446042C1BD17948006941F65B
:10228000DF710840764908610846006940F0100097
:10229000086176480580E002FFF733FF0446052C0D
:1022A00010D06F48006941F6EF7108406C49086131
:1022B00008E0052C06D06A48006941F6EF71084035
:1022C00067490861204630BD78B506460C460425AE
:1022D00000200090E802FFF714FF0546042D24D1EA
:1022E0005F48006940F001005D4908613480E80200
:1022F000FFF707FF0546042D10D1B01C0090200CFD
:1023000000990880E802FFF7FCFE05465448006982
:1023100041F6FE7108405249086106E050480069E4
:1023200041F6FE7108404E490861284678BD70B5F7
:1023300004460D460426F002FFF7E3FE0646042E8F
:1023400011D14748006940F00100454908612580E6
:10235000F002FFF7D6FE06464148006941F6FE71DD
:1023600008403F490861304670BD70B505460E46CD
:102370000424E002FFF7C5FE0446042C17D13948B7
:1023800037498860384888600846006940F0100086
:1023900008612E80E002FFF7B4FE0446052C06D04B
:1023A0002F48006941F6EF7108402D490861204629
:1023B00070BD2DE9F04304464FF6FF763746B04630
:1023C000B1460425E443E6B2C4F30727C4F3074843
:1023D0004FEA1469E802FFF794FE0546042D49D13F
:1023E00020481F498860204888600846006940F0FE
:1023F00010000861FF2E06D01C4808300680E80255
:10240000FFF77FFE0546042D08D1FF2F06D01748A1
:102410000A300780E802FFF774FE0546042D0AD152
:10242000B8F1FF0F07D011480C30A0F80080E80287
:10243000FFF767FE0546042D0AD1B9F1FF0F07D05B
:102440000A480E30A0F80090E802FFF75AFE054651
:10245000052D0FD00248006941F6EF71084007E0F2
:102460000020024023016745AB89EFCD00F8FF1F34
:10247000664908612846BDE8F08330B50546042466
:102480004FF43020FFF73DFE0446042C41D1604854
:102490005E4988605F4888600846006940F0200017
:1024A00008610846006940F0400008614FF43020A0
:1024B000FFF727FE0446042C22D15448006941F658
:1024C000DF710840514908610846006940F010007A
:1024D00008611DB100205049088002E0A5204E4946
:1024E00008804FF43020FFF70CFE0446052C10D076
:1024F0004648006941F6EF7108404449086108E028
:10250000052C06D04148006941F6DF7108403F497B
:102510000861204630BDF0B505460E461746042436
:102520003B483A4988603B488860E002FFF7E9FD94
:102530000446042C19D13548006940F01000334995
:10254000086147F0F800304328433349891C08806C
:10255000E002FFF7D6FD0446052C06D02B480069A3
:1025600041F6EF710840294908612046F0BD27482F
:10257000C069800870472548006A704700202349D9
:10258000096801F0200109B1012000E00020704736
:1025900029B11E4A126902431C4B1A6104E01B4A0E
:1025A00012698243194B1A617047014600200129C4
:1025B00008D1164AD26902F001020AB1012008E0EE
:1025C000002006E0114AD2680A400AB1012000E06A
:1025D000002070470D49C860704704200B49C96846
:1025E00001F0010109B101200EE00849C96801F0BC
:1025F000040109B1022007E00449C96801F0100193
:1026000009B1032000E004207047000000200240D0
:1026100023016745AB89EFCD00F8FF1F10B50446D5
:10262000BE48844208D101218014FFF7CBFA002173
:10263000A014FFF7C7FA16E0B948844208D1012177
:102640000014FFF7CCFA00212014FFF7C8FA0AE0C3
:10265000B448844207D10121C013FFF7C0FA00211A
:10266000E013FFF7BCFA10BD10B50022028802F497
:1026700041520B884C8823438C882343CC882343C6
:102680000C8923434C8923438C892343CC892343DE
:102690001A430280838B4FF2FF74234083830B8A9B
:1026A000038210BD2DE9F04F85B005460C464FF072
:1026B000000902274FF000084FF0010B0026B24638
:1026C000A88B4FF240010840A88302202884B5F867
:1026D0001C90A068022801D100BF38E0A08810B982
:1026E0004FF0010B01E04FF0020B8D48854200D105
:1026F00000E000BF6846FFF7DEF9DDF800A0E088E3
:10270000B0F5007F0AD14FEA1A2000EB80004000AC
:10271000A168B0FBF1F0401D86B20BE04FEA4B1010
:10272000BAFBF0F000EB80004000A168B0FBF1F0D4
:10273000401D86B20A20B6FBF0F606F00108A6EBB3
:102740000800C0F34F074FF6FF7000EA0828022F79
:1027500001DBFF2F02DD02274FF00008E08840EA8E
:10276000080038432884A088A18908436188084369
:102770002188084340F4006040EA0909A5F81C904C
:1027800005B0BDE8F08F0021018041808180C180CB
:10279000018141818181C18107210182704700212E
:1027A000018041808180C18002218160002181817E
:1027B000704721B1028842F04002028004E00288A2
:1027C0004FF6BF731A400280704721B1828B42F4EA
:1027D0008062828304E0828B4FF6FF331A4082834B
:1027E000704730B5002400230C110125A540ABB281
:1027F0001AB185881D43858002E085889D438580C8
:1028000030BD1AB183880B43838002E083888B43F9
:1028100083807047818170470146888970474FF6F1
:10282000FF62914204D0028842F48072028004E088
:1028300002884FF6FF631A400280704721B18288F8
:1028400042F00402828004E082884FF6FB731A4053
:102850008280704702884FF2FF731A40028002881C
:102860000A4302807047018841F48051018070471B
:1028700021B1028842F40052028004E002884DF641
:10288000FF731A400280704702460020012901D0E0
:10289000108B00E0908A70470146088A7047B1F5B6
:1028A000804F04D1028842F48042028004E0028812
:1028B0004BF6FF731A4002807047024600201389CE
:1028C0000B400BB1012000E000207047CA43028199
:1028D0007047F0B50246002000240023002501F0D7
:1028E0000F070126BE40B4B20B1101269E40B3B2C1
:1028F000968806EA03051689264016B10DB1012017
:1029000000E00020F0BD10B5002201F00F0401230B
:10291000A3409AB2D343038110BD000000300140B0
:1029200000380040003C00402DE9F05F06460F46AD
:1029300090460024B3463D46A1461CE068784FEA25
:10294000002A287850441FFA80FAAD1C2046611CEA
:102950008CB2174921F810A0B4F5806F07D100247C
:102960004FF480625846FEF726F80BF5006B09F12C
:1029700002001FFA80F9C145E0D324B122460C4978
:102980005846FEF718F8BDE8F09F10B504462068D9
:1029900008490840B0F1005F08D160680649086046
:1029A0002068FDF71BFC04480068804710BD00004C
:1029B00000F400200000FE2F3C00002070470000C3
:1029C0000FB4044910B503AA029800F0B1F910BC85
:1029D0005DF814FB2400002070B50446856900688A
:1029E000C10601D5302600E02026C00707D070BD03
:1029F000D4E9012130469047206A401C20626D1EB8
:102A0000F6D570BD70B5044685690078C00707D15A
:102A100070BDD4E9012120209047206A401C20622B
:102A20006D1EF6D570BD00002DE9F041064600246C
:102A300010687529314616A510D0AFF30080002824
:102A400002DA404213A507E031688A0701D512A5D2
:102A500002E0490704D511A5012401E0AFF300808D
:102A600000210A2206F1240709E0B0FBF2FCB0FBCA
:102A7000F2F302FB1C00303078541846491C002841
:102A8000F3D123462A463046BDE8F04100F0F6B8BF
:102A9000000000002D0000002B00000020000000BE
:102AA00070B504460D4621461068AFF300802188BA
:102AB000090502D50F4A7A4402E00E4A7A440E32E2
:102AC000002104F1240305E000F00F060009965DE3
:102AD0005E54491C0028F7D120780023000704D554
:102AE000702D02D009B1022311322046BDE870409A
:102AF00000F0C4B8900300002DE9F05F8946044659
:102B00004FF0000ADFF824B1FB44C0F820A02046B3
:102B1000E168884700287DD0252806D0D4E9012126
:102B20009047206A401C2062F1E700255F4620465E
:102B3000E16888472028064607DB312E05D2B81900
:102B400010F8200C08B10543F1E7A80701D525F0DE
:102B50000405C4F81CA00027C4F818A02A2E09D028
:102B6000304600F06BF938B304EB8708303EC8F804
:102B7000186019E059F8041B204604EB87029161A4
:102B8000E1688847012F064618D1E069002820DA5D
:102B900025F020051DE0D8F8180000EB800006EBBA
:102BA00040003038C8F818002046E16888470646DB
:102BB00000F044F90028EED1012F0AD02E2E08D1C2
:102BC0002046E16888477F1C0646022F45F0200515
:102BD000C4DBA069002803DA404245F00105A0618A
:102BE000E80701D025F01005A6B1A6F1410019288B
:102BF00002D8203645F400654A4631462046256015
:102C00004D46FDF7CFFA60B1012807D0ED1D25F044
:102C1000070000E007E000F1080978E705F1040982
:102C200075E730467AE7206ABDE8F09F660300004A
:102C30004FF000020429C0F0128010F0030C00F0E5
:102C40008B80CCF1040CBCF1020F18BF00F8012BF3
:102C5000A8BF20F8022BA1EB0C0100F07DB85FEAC1
:102C6000C17C24BF00F8012B00F8012B48BF00F8FD
:102C7000012B704770477047704770472DE9F04748
:102C80000D4699469246044600F1240801688806DC
:102C900004D5E06921F01001216000E00120A84284
:102CA00001DD471B00E00027A1697A1902EB09004A
:102CB000081AA0612078C00602D42046FFF78CFED7
:102CC000002608E0D4E901211AF806009047206A9E
:102CD000401C761C20624E45F4DB2078C0060AD5E5
:102CE0002046FFF779FE06E0D4E901213020904725
:102CF000206A401C2062381EA7F10107F4DC07E0BF
:102D0000D4E9012118F805009047206A401C206290
:102D1000281EA5F10105F3DC2046FFF773FE20789D
:102D2000000602D50220BDE8F0870120FBE7000085
:102D3000074B70B50D467B4400F039F80446284631
:102D400000F048F810B14FF0FF3070BD204670BD64
:102D5000BDE2FFFF4FF0000200B5134694469646D1
:102D6000203922BFA0E80C50A0E80C50B1F120019E
:102D7000BFF4F7AF090728BFA0E80C5048BF0CC04C
:102D80005DF804EB890028BF40F8042B08BF7047AA
:102D900048BF20F8022B11F0804F18BF00F8012B1C
:102DA0007047000001694A1C02610878704700B54D
:102DB0008FB0CDE901310021059105497944CDE974
:102DC000031011466846FFF797FE0FB000BD0000E4
:102DD000E5FFFFFF007B00F080007047754600F0C4
:102DE00029F8AE4605006946534620F0070085469F
:102DF00018B020B5FEF730FBBDE820404FF00006CC
:102E00004FF000074FF000084FF0000B21F00701D2
:102E1000AC46ACE8C009ACE8C009ACE8C009ACE815
:102E2000C0098D4670470446AFF300802046FDF789
:102E3000CEF90000004870474008002030380A28CA
:102E400001D20120704700207047303132333435D1
:102E500036373839414243444546403058003031D6
:102E600032333435363738396162636465664030F1
:102E700078000400000800000000000000020001CB
:102E800000001000A42E00080000002040000000F8
:102E90006C010008E42E000840000020C0FB000088
:102EA000880100080000000000A24A0400000000A1
:102EB000000000000102030406070809010017EFE3
:102EC0000000000000000000000000000000000002
:102ED00001020304010203040607080902040608AC
:042EE00000000000EE
:0400000508000131BD
:00000001FF
