:020000040800F2
:10000000003D0020B9010008411900083919000815
:100010003D190008090A00084D26000800000000EC
:10002000000000000000000000000000BF1D0008EC
:10003000AD0C000800000000F11900088520000840
:10004000D3010008D3010008D3010008D301000840
:10005000D3010008D3010008D3010008D301000830
:10006000D3010008D3010008D3010008D301000820
:10007000D3010008D3010008D3010008D301000810
:10008000D3010008D3010008D3010008D301000800
:10009000D3010008D3010008D3010008D3010008F0
:1000A000D3010008D3010008D3010008D3010008E0
:1000B000E9200008D3010008D3010008D30100089B
:1000C000D3010008D3010008D3010008D3010008C0
:1000D000D301000815230008F1230008D30100080C
:1000E000D3010008D3010008D301000800F002F892
:1000F00000F04EF80AA090E8000C82448344AAF174
:100100000107DA4501D100F043F8AFF2090EBAE871
:100110000F0013F0010F18BFFB1A43F0010318473B
:100120003837000058370000103A24BF78C878C12B
:10013000FAD8520724BF30C830C144BF04680C60ED
:10014000704700000023002400250026103A28BF35
:1001500078C1FBD8520728BF30C148BF0B60704739
:10016000642900F0BB80782900F0F480732900F046
:100170006083002070471FB500F02EFC04000020B3
:10018000002103F035FB401C60601FBD10B510BDA1
:1001900000F0FDFB1146FFF7EEFF02F039FD00F025
:1001A0002DFC03B4FFF7F2FF03BC02F0D6FB000006
:1001B00080F30888704700000948804709480047D5
:1001C000FEE7FEE7FEE7FEE7FEE7FEE7FEE7FEE707
:1001D000FEE7FEE704480549054A064B7047000064
:1001E00089200008ED00000800310020003D0020BB
:1001F0000035002000350020704700000FB404498E
:1002000010B503AA029800F019FB10BC5DF814FBAE
:10021000240000200FB41CB5074B06AA7B44694696
:100220000090059800F0DBFA0020694600F0EAFA39
:100230001CBC5DF814FB0000E505000070B5044629
:1002400085690068C10601D5302600E02026C00778
:1002500007D070BDD4E9012130469047206A401C88
:1002600020626D1EF6D570BD70B5044685690078B4
:10027000C00707D170BDD4E9012120209047206A32
:10028000401C20626D1EF6D570BD70B50C4605464B
:10029000012A05D02878800600D5EA69002302E00B
:1002A000012305E05B1C934202D2E05C0028F9D1F7
:1002B000A869E618C01AA861286A18442862284666
:1002C000FFF7BCFF04E0D5E9012114F8010B9047CA
:1002D000B442F8D32846FFF7C7FF70BD2DE9F041BF
:1002E0000646002410687529314616A510D0AFF3D4
:1002F0000080002802DA404213A507E031688A072F
:1003000001D512A502E0490704D511A5012401E099
:10031000AFF3008000210A2206F1240709E0B0FBB8
:10032000F2FCB0FBF2F302FB1C00303078541846AC
:10033000491C0028F3D123462A463046BDE8F04147
:1003400000F0EEB9000000002D0000002B000000BE
:100350002000000070B504460D4621461068AFF33A
:1003600000802188090502D50F4A7A4402E00E4A2E
:100370007A440E32002104F1240305E000F00F0658
:100380000009965D5E54491C0028F7D120780023AF
:10039000000704D5702D02D009B102231132204686
:1003A000BDE8704000F0BCB9AE3400002DE9F05F4C
:1003B000894604464FF0000ADFF824B1FB44C0F838
:1003C00020A02046E168884700287DD0252806D057
:1003D000D4E901219047206A401C2062F1E7002502
:1003E0005F462046E16888472028064607DB312E15
:1003F00005D2B81910F8200C08B10543F1E7A80799
:1004000001D525F00405C4F81CA00027C4F818A0E5
:100410002A2E09D0304602F099FA38B304EB870847
:10042000303EC8F8186019E059F8041B204604EB68
:1004300087029161E1688847012F064618D1E0697B
:10044000002820DA25F020051DE0D8F8180000EB80
:10045000800006EB40003038C8F818002046E168FC
:100460008847064602F072FA0028EED1012F0AD022
:100470002E2E08D12046E16888477F1C0646022FB1
:1004800045F02005C4DBA069002803DA404245F0AE
:100490000105A061E80701D025F01005A6B1A6F17D
:1004A0004100192802D8203645F400654A463146F5
:1004B000204625604D46FFF753FE60B1012807D066
:1004C000ED1D25F0070000E007E000F1080978E7DE
:1004D00005F1040975E730467AE7206ABDE8F09F28
:1004E0008434000070B5064600F016F9046805462D
:1004F00030460A22002100F0B3F92C6070BD30B5FF
:1005000005460B462A4613F8014B12F8010B08B1B9
:10051000A042F8D01CB1002802D06D1CF1E728469B
:1005200030BD40EA0103024630B59B0710D14FF0C1
:10053000013400E008C208C91D1B9D4315EAC41F11
:10054000F8D013F0FF0102F8011B0DD01B0AF8E7E9
:1005500011F8013B002B02F8013B05D011F8013BDB
:10056000002B02F8013BF3D130BD10B5431C02E073
:1005700010F8011B71B18107FAD14FF0013202C8A6
:100580008C1A8C4314EAC211F9D0C01A0A0603D09F
:10059000C01E10BDC01A10BD0A0401D0801E10BDBF
:1005A0000902FCD0401E10BD4FF000020429C0F02B
:1005B000128010F0030C00F01B80CCF1040CBCF195
:1005C000020F18BF00F8012BA8BF20F8022BA1EBE7
:1005D0000C0100F00DB85FEAC17C24BF00F8012BCC
:1005E00000F8012B48BF00F8012B70474FF00002C4
:1005F00000B5134694469646203922BFA0E80C5019
:10060000A0E80C50B1F12001BFF4F7AF090728BFF3
:10061000A0E80C5048BF0CC05DF804EB890028BF6F
:1006200040F8042B08BF704748BF20F8022B11F098
:10063000804F18BF00F8012B704710B5044610F02A
:10064000030F08BF11F0030F40F015804FF0013E7B
:10065000121FC0F20E8051F8043BA3EB0E0C2CEAE3
:10066000030C1CEACE1C08BF40F8043BF0D0A1F1FB
:10067000040102F10402521E08DB11F8013B002BB9
:1006800000F8013BF7D11146FFF78EFF204610BD61
:100690004FF0013C50F8042B51F8043B9A4221D111
:1006A000A2EB0C03934313EACC1317D150F8042B9D
:1006B00051F8043B9A4215D1A2EB0C03934313EA81
:1006C000CC130BD150F8042B51F8043B9A4209D1BA
:1006D000A2EB0C03934313EACC13DBD04FF00000E2
:1006E000704700BFD01A01BAB1FA81F101F01801C8
:1006F00022FA01F0CB40C1F12001DBB2C0B2C01A36
:100700002CFA01F3D11A914311EAC311E6D17047D3
:10071000704770477047704700487047A03000200E
:100720002DE9F0470D4699469246044600F124080B
:100730000168880604D5E06921F01001216000E01D
:100740000120A84201DD471B00E00027A1697A19BA
:1007500002EB0900081AA0612078C00602D42046E6
:10076000FFF76CFD002608E0D4E901211AF8060025
:100770009047206A401C761C20624E45F4DB2078AE
:10078000C0060AD52046FFF759FD06E0D4E901214D
:1007900030209047206A401C2062381EA7F10107D4
:1007A000F4DC07E0D4E9012118F805009047206A3D
:1007B000401C2062281EA5F10105F3DC2046FFF74E
:1007C00053FD2078000602D50220BDE8F087012005
:1007D000FBE7000001694A1C02610878704700B518
:1007E0008FB0CDE901310021059105497944CDE96A
:1007F000031011466846FFF7D9FD0FB000BD000099
:10080000E5FFFFFF0A6802F8010B0A60704710B5A8
:10081000436913B1AFF3008001E0FFF736FD01201B
:1008200010BD127800F124010A7000224A700122E2
:10083000EDE711684FF0FF32E9E70000074B70B5B4
:100840000D467B44FFF7CBFF0446284600F09BF89B
:1008500010B14FF0FF3070BD204670BD0323000083
:100860002DE9F04791460F4680460446002614F8CD
:10087000015B2DB100F030F80068405DC007F6D193
:100880002B2D02D02D2D18D0641E4A463946204605
:1008900000F02AF827B13968A14201D1C7F80080D9
:1008A0004FF0020471050BD54042002803DDFFF72D
:1008B00033FF0460A007BDE8F08746F48066E4E7F4
:1008C0000028F8DAFFF728FF04606FF00040F2E735
:1008D00000487047A030002010B500F07DF8001DE2
:1008E00010BD00BF0D2F00002DE9F05F82461546B8
:1008F0008B4600270AF10104B9460078302801D060
:100900009DB113E014F8010B0127782803D0582873
:1009100001D045B10AE00DB1102D07D1002714F820
:10092000010B102502E0082500E00A250026B0464C
:100930000EE005FB080005FB06F101271FFA80F811
:1009400001EB1046B6F5803F00D3B94614F8010B11
:10095000294600F045F80028EBDABBF1000F05D07E
:100960000FB1641E00E05446CBF80040B9F1000F0F
:1009700006D0FFF7D1FE02210160C81EBDE8F09F3E
:1009800048EA0640FAE7007B00F0800070477546B1
:10099000FFF79EFFAE4605006946534620F007006C
:1009A000854618B020B5FFF715FCBDE820404FF094
:1009B00000064FF000074FF000084FF0000B21F049
:1009C0000701AC46ACE8C009ACE8C009ACE8C00916
:1009D000ACE8C0098D46704700487047C030002021
:1009E0003A2800D2303820F02002412A01D3A2F167
:1009F0003700884201D34FF0FF3070470446AFF311
:100A000000802046FFF7CDFB00BFFEE710B586B0A3
:100A1000002400BF12E003A802F094FB10B90020EC
:100A200006B010BD52A103A8FFF732FE00B907E0DF
:100A30004FF47A7001F094FF601CC4B21E2CEADB04
:100A400000BF1E2C01DB0020EAE74BA0FFF7D6FB1E
:100A50004FF47A7001F084FF00240FE04A4802F05E
:100A60002BF808B90020DBE74748007800B107E021
:100A70004FF47A7001F074FF601CC4B21E2CEDDBE1
:100A800000BF1E2C01DB0020CAE73F4801783FA0D1
:100A9000FFF7B4FB4FF47A7001F062FF002415E019
:100AA00001A902A802F07AFB08B90020B8E79DF876
:100AB0000400012803D09DF80400052800D107E0B8
:100AC0004FF47A7001F04CFF601CC4B21E2CE7DBBF
:100AD00000BF1E2C01DB0020A2E72FA0FFF78EFB3A
:100AE0004FF47A7001F03CFF002410E0684602F0F9
:100AF000FBFA08B9002093E79DF80000012800D117
:100B000007E04FF47A7001F02BFF601CC4B21E2C7A
:100B1000ECDB00BF1E2C01DB002081E722A0FFF7E9
:100B20006DFB012002F05AFC08B9002078E722A0F2
:100B3000FFF764FB26A002F08FFC08B900206FE7E6
:100B400025A0FFF75BFB01F0A1FF08B9002067E7D4
:100B500027A0FFF753FB2A4801F066FF08B90020E1
:100B60005EE7274927A0FFF749FB012058E700006F
:100B700052454144590000004350494E3D524541C1
:100B80004459210D0A0000005800002063737120B1
:100B90003D2025640D0A0000435245475F73746190
:100BA000743D31210D0A00004347415454203D203B
:100BB00031210D0A000000007341544349504D4F4C
:100BC0004445203D2031206973204F4B210D0A0000
:100BD000434D4E455400000043535454203D2043A0
:100BE0004D4E4554206973204F4B210D0A000000E3
:100BF0004349494352206973204F4B210D0A00009D
:100C00007E2C002073696D5F6970203D2025730D77
:100C10000A00000000200149087070477E2800206B
:100C200000200349086003490860034908707047C1
:100C300040000020440000204800002010B500249F
:100C400000BF0AE001F0E0FE20B94FF47A7001F035
:100C500087FE00E003E0601CC4B2282CF2DB00BF7A
:100C6000282C01DB002010BD06A0FFF7C7FA41F2D7
:100C7000883107A002F030FB10B108A0FFF7BEFAE0
:100C80000120F0E74154206973204F4B210D0A00E9
:100C9000534D53205265616479000000534D532039
:100CA0005265616479210D0A000000007047000060
:100CB00030B5044604254FF4302000F06FF80546A7
:100CC000042D17D10C48006940F002000A49086160
:100CD00008464461006940F0400008614FF430204C
:100CE00000F05CF805460448006941F6FD710840D3
:100CF00001490861284630BD0020024004200B490C
:100D0000C96801F0010109B101200EE00749C96875
:100D100001F0040109B1022007E00449C96801F0AB
:100D2000100109B1032000E00420704700200240B8
:100D30000348006940F080000149086170470000E5
:100D40000020024070B504460D460426F00200F073
:100D500025F80646042E11D10948006940F001002B
:100D6000074908612580F00200F018F8064604489B
:100D7000006941F6FE71084001490861304670BDC6
:100D80000020024002480349486003484860704719
:100D90002301674500200240AB89EFCD00B5024634
:100DA0000423FFF7ABFF034603E0FFF7A7FF03466B
:100DB000521E012B01D1002AF7D102B90523184692
:100DC00000BD00002DE9F04387B081464FF00008D8
:100DD0004FF0FF3006900026E1A3E3A2012103209B
:100DE00002F0B2FC18B9002007B0BDE8F083E0A023
:100DF000FFF704FAE2A3E4A20121032002F0A4FC1D
:100E000008B90020F0E7E1A0FFF7F8F90121084652
:100E100002F0C4FC08B90020E6E7E0A0FFF7EEF915
:100E2000012002F037FB08B90020DDE7DFA0FFF763
:100E3000E5F9E3A002F044FC08B90020D4E7E4A0FF
:100E4000FFF7DCF9E7A002F05DFC08B90020CBE772
:100E5000E6A0FFF7D3F9EAA002F010FC08B90020E1
:100E6000C2E7E9A0FFF7CAF9ECA002F0BFFB08B99E
:100E70000020B9E7ECA0FFF7C1F9F1A002F0DAFB1E
:100E800008B90020B0E7F0A0FFF7B8F9002211463A
:100E9000012002F021FB08B90020A5E7F0A0FFF730
:100EA000ADF94FF4FA6001F05BFD24E006AA4FF4BF
:100EB0008071022002F010FB08B9002094E7374649
:100EC000F01706EB10600012411CEAA0069AFFF72B
:100ED00095F9069868B1F2A0FFF790F9069882B2EA
:100EE0003146F64801F078FCF5A0FFF787F906983F
:100EF000064408F1010806980028D7D147F230517E
:100F0000F6A002F0E9F948B901F000FE08B90020A6
:100F10006AE7F6A0FFF772F9002065E7F8A0FFF78F
:100F20006DF9FDA0FFF76AF9002420E02146FEA03C
:100F3000FFF764F91022214602A801F0E1FB002529
:100F40000FE002A8415DFAA0FFF758F9681C00EB1A
:100F5000D0714910A0EB410111B9F7A0FFF74EF98C
:100F60006D1C102DEDDB9EA0FFF748F91034B44244
:100F7000DCDB002E7ED0F1480660F1A0FFF73EF9E1
:100F800004221146F34801F0BBFBF24800780090C0
:100F9000F04843788278C178EFA0FFF72FF9ED4849
:100FA000C078082867D1A1E0E4480068B0F5806FF8
:100FB00007D8E2480068F04908600020DF4908606F
:100FC00009E04FF48060EC490860DC480068A0F557
:100FD0008060DA490860E9480068012202EB90214C
:100FE000E7A0FFF70BF9E448008882B2E348016804
:100FF000EA4801F085FBC8A0FFF700F900241FE0D4
:10100000DE48006804EB9021C7A0FFF7F7F8002541
:1010100010E06019E14A115CC5A0FFF7EFF8681C09
:1010200000EBD0714910A0EB410111B9C2A0FFF74C
:10103000E5F86D1C102DECDB69A0FFF7DFF810342C
:10104000CD4800688442DBD3CB480268CB480168B6
:10105000D3A0FFF7D3F8C9490968DA4A88185214AF
:10106000CE4901F0A1FD4FF48061CC48FFF79CFA16
:10107000C24901E047E042E00968D24A88185214A8
:10108000C64901F085FDD0A0FFF7B8F800241FE0A5
:10109000BA48006804EB9021A3A0FFF7AFF8002541
:1010A00010E06019BD4A115CA1A0FFF7A7F8681C09
:1010B00000EBD0714910A0EB410111B99EA0FFF7E0
:1010C0009DF86D1C102DECDB45A0FFF797F8103450
:1010D000B4F5806FDCDB4FF48061B048FFF764FA51
:1010E000A648006800F58060A4490860934800683D
:1010F00000287FF459AFB9A0FFF780F806E0BBA045
:10110000FFF77CF802E0BEA0FFF778F8C2A0FFF777
:1011100075F8AC48406800F07F40B0F1006F1DD119
:1011200072B6002240F22551C24801F0E2F90021D6
:10113000C04801F09BF9002240F22551BE4801F061
:10114000D8F90021BC4801F091F90022012188075B
:1011500001F01BF800214FF080406FE178E10000C2
:101160004750525300000000434F4E545950450021
:1011700053415042522031204F4B210D0A000000B4
:10118000434D4E455400000041504E0053415042E3
:10119000522032204F4B210D0A0000005341504293
:1011A000522033204F4B210D0A000000734154465A
:1011B0005450434944206973206F6B0D0A000000AE
:1011C0003232322E32392E34302E343100000000CB
:1011D00073415446545053455256206973206F6BE7
:1011E0000D0A0000746573740000000073415446DA
:1011F0005450554E206973206F6B0D0A000000009B
:10120000313131313131000073415446545050571F
:10121000206973206F6B0D0A000000005561727425
:10122000542E62696E000000734154465450474585
:10123000544E414D45206973206F6B0D0A0000002C
:101240002F76312E302F00007341544654504745BD
:101250005450415448206973206F6B0D0A00000000
:101260007341544654504745542031206973206FD0
:101270006B0D0A000D0A73415446545047455420E3
:1012800032206973206F6B2025642C206674705F98
:10129000726563765F6C656E203D2025640D0A00E3
:1012A00053746172742057726974652057323551D6
:1012B0003132382E2E2E2E0D0A0000007E2A0020FC
:1012C000573235513132382057726974652046697A
:1012D0006E6973686564210D0A0000002B46545046
:1012E0004745543A20312C300D0A000065415446E0
:1012F000545051554954206973206F6B0D0A0000FA
:101300002B4654504745543A20312C3020697320E5
:101310006F6B0D0A000000000D0A57323558582037
:10132000636865636B0D0A00253037783A2000004A
:101330002530327800000000200000006800002006
:10134000BFAACABCB8FCD0C2B9CCBCFE2E2E2E0D92
:101350000A00000064000020617070636865636BC0
:10136000203D2025303278253032782530327825DE
:101370003032780D0A000000700000206C00002060
:101380005374617274205265616420573235513153
:1013900032382E2E2E2E2025640D0A009D2C002082
:1013A0007E7E6170705F6F6666203D2025642C2014
:1013B0006170705F74656D705F6C656E203D202597
:1013C00064000000005000080D0AC6ACC4DA464CA8
:1013D00041534820636865636B0D0A00B9CCBCFEBD
:1013E000B8FCD0C2CDEAB3C9210D0A00B7C7464C3C
:1013F000415348D3A6D3C3B3CCD0F2210D0A000089
:10140000C3BBD3D0BFC9D2D4B8FCD0C2B5C4B9CC49
:10141000BCFE210D0A000000BFAACABCD6B4D0D0C1
:10142000464C415348D3C3BBA7B4FAC2EB21210DAC
:101430000A000000003801400044004000F088FE2F
:101440000021064800F0E8FB054801F08BFB02E0B4
:1014500004A0FEF7D3FE0120C6E4000000380040DF
:1014600000500008B7C7464C415348D3A6D3C3B376
:10147000CCD0F22CCEDEB7A8D6B4D0D0210D0A0045
:1014800008B503208DF802000121864800F09EF97E
:101490000121854800F09AF90820ADF800001020DD
:1014A0008DF803006946814800F004F908217F485F
:1014B00000F0D6F91020ADF8000048208DF80300A8
:1014C00069467A4800F0F6F82020ADF800001020B8
:1014D0008DF803006946754800F0ECF82021734848
:1014E00000F0BEF94020ADF8000010208DF8030098
:1014F00069466E4800F0DEF840216C4800F0B0F913
:101500008020ADF8000010208DF803006946674880
:1015100000F0D0F88021654800F0A2F94FF4807007
:10152000ADF8000010208DF8030069465F4800F018
:10153000C1F84FF480715D4800F092F94FF40070EB
:10154000ADF8000010208DF803006946574800F000
:10155000B1F84FF40071554800F082F94FF4805013
:10156000ADF8000010208DF8030003208DF8020074
:1015700069464E4800F09EF84FF480514B4800F009
:101580006DF90120ADF8000048208DF80300694690
:10159000474800F08FF81020ADF800008DF80300E8
:1015A0006946434800F086F82020ADF8000010207E
:1015B0008DF8030069463E4800F07CF84020ADF805
:1015C000000010208DF803006946394800F072F8D9
:1015D0008020ADF8000010208DF8030069463448E3
:1015E00000F068F80120ADF8000010208DF803002D
:1015F00069462E4800F05EF801212C4800F02EF9D3
:101600000220ADF8000010208DF80300694628483C
:1016100000F050F80221264800F022F94FF4007043
:10162000ADF8000018208DF803006946204800F04E
:1016300041F84FF48060ADF8000004208DF80300FD
:1016400069461B4800F036F80420ADF80000182069
:101650008DF803006946164800F02CF80820ADF814
:10166000000004208DF803006946114800F022F8BC
:101670004FF48060ADF8000002208DF802001820C1
:101680008DF803006946094800F014F84FF4006033
:10169000ADF8000004208DF803006946034800F00F
:1016A00009F808BD0004300000023000000C0140C1
:1016B000000801402DE9F0410246002500260020E7
:1016C00000230024002791F803C00CF00F0591F8C7
:1016D00003C00CF0100CBCF1000F03D091F802C055
:1016E0004CEA050591F800C0BCF1000F31D0146838
:1016F00000202BE04FF0010C0CFA00F3B1F800C011
:101700000CEA03069E4220D183004FF00F0C0CFA26
:1017100003F7BC4305FA03FC4CEA040491F803C048
:10172000BCF1280F06D14FF0010C0CFA00FCC2F8F6
:1017300014C00AE091F803C0BCF1480F05D14FF086
:10174000010C0CFA00FCC2F810C0401C0828D1D3D0
:101750001460B1F800C0BCF1FF0F34DD5468002004
:101760002EE000F1080C4FF0010808FA0CF3B1F874
:1017700000C00CEA03069E4221D183004FF00F0CFB
:101780000CFA03F7BC4305FA03FC4CEA040491F895
:1017900003C0BCF1280F05D100F1080C08FA0CF8C1
:1017A000C2F8148091F803C0BCF1480F07D100F1D2
:1017B000080C4FF0010808FA0CF8C2F81080401C21
:1017C0000828CED35460BDE8F0810000F0B50A4689
:1017D000002300240021002500F00046B6F1004F50
:1017E00002D11D4EF16901E01B4E7168C0F3034543
:1017F00083B200F44016B6F5401F08D121F07061A5
:10180000154E766826F07066134F7E6012E000F485
:101810008016B6F5801F06D1032606FA05F4A1430B
:1018200041F0706106E0460D360103FA06F6B14359
:1018300041F0706122B1460D360103FA06F63143DC
:1018400000F00046B6F1004F02D1034EF16101E015
:10185000014E7160F0BD0000000001404161704721
:101860000161704710B5044600221146204600F081
:10187000F7FC10BD70B504460D461646002013490E
:1018800008604FF47A7001F06BF801201049C1F83C
:1018900080014FF47A7001F063F800200D49086070
:1018A0004FF47A7001F05CF8FFF7C8F908B900202E
:1018B00070BDFFF7ABF808B90020F9E72046FFF745
:1018C00081FA08B90020F3E70120F1E78401214201
:1018D000008021428081214210B5012001F098FD55
:1018E00018B109A0FEF78AFC02E00BA0FEF786FC07
:1018F00001200F4908604FF47A7001F031F80020A0
:101900000C49C1F8840110BD47534D2072657374B2
:10191000617274210D0A000047534D207265737483
:10192000617274204641494C4544210D0A00000073
:10193000840121420000214200BFFEE700BFFEE714
:10194000704708B54FF4C06000F048F81C208DF8CF
:10195000000000208DF8010002208DF80200012017
:101960008DF80300684600F001F808BD70B500214D
:1019700000230F22C47804B3154C246804F4E064F7
:10198000C4F5E064210AC1F10403CA40447804FAB2
:1019900003F184781440214309010E4C0678A155C7
:1019A000047804F01F050124AC4005786D11AD00EA
:1019B00005F1E025C5F8004109E0047804F01F05B1
:1019C0000124AC40044D0678761145F8264070BDE0
:1019D0000CED00E000E400E080E100E0024901439A
:1019E000024A1160704700000000FA050CED00E0AB
:1019F0007047000029B1064AD2690243044BDA61FC
:101A000004E0034AD2698243014BDA617047000067
:101A10000010024029B1064A92690243044B9A61C0
:101A200004E0034A92698243014B9A6170470000C7
:101A30000010024030B500210022002400232D4D6B
:101A40006D6805F00C0121B1042905D0082923D1C6
:101A500005E0294D056022E0274D05601FE0254D7A
:101A60006D6805F47012234D6D6805F4803402250D
:101A700005EB92421CB9214D554305600BE01D4D0D
:101A80006D6805F400351DB11C4D5543056002E03D
:101A9000194D5543056002E0174D056000BF00BFBA
:101AA000144D6D6805F0F0010909154D6B5C056872
:101AB000DD4045600F4D6D6805F4E061090A104D89
:101AC0006B5C4568DD4085600A4D6D6805F46051CA
:101AD000C90A0B4D6B5C4568DD40C560054D6D68FE
:101AE00005F44041890B074D6B5CC568B5FBF3F508
:101AF000056130BD0010024000127A0000093D006F
:101B0000280000203800002000B587B001210820FF
:101B1000FFF780FF01218803FFF76CFF4FF460405F
:101B2000ADF8180018208DF81B0003208DF81A005E
:101B300006A91848FFF7BEFD4FF460411548FFF7AE
:101B40008FFE0020ADF804004FF48270ADF806005F
:101B50000020ADF808000220ADF80A000120ADF821
:101B60000C004002ADF80E003820ADF81000002047
:101B7000ADF812000720ADF8140001A9064800F0E6
:101B800065F80121044800F047F8FF2000F006F84E
:101B900007B000BD000C01400038004070B505469C
:101BA000002405E0601CC4B2C82C01DD002070BD1B
:101BB00002210E4800F03CF80028F3D029460B48DB
:101BC00000F042F8002405E0601CC4B2C82C01DD1E
:101BD0000020ECE70121054800F02AF80028F3D0A6
:101BE000024800F02EF8C0B2E1E7000000380040E3
:101BF00010B50446074800884FF6C77108400549EC
:101C0000088008460088204308800121014800F030
:101C100003F810BD0038004021B1028842F04002B4
:101C2000028004E002884FF6BF731A4002807047BA
:101C30000246002013890B400BB1012000E0002078
:101C400070470146888970478181704710B500222E
:101C5000028802F441520B884C8823438C8823432A
:101C6000CC8823430C8923434C8923438C89234309
:101C7000CC8923431A430280838B4FF2FF742340A5
:101C800083830B8A038210BD30B503460C4615468C
:101C9000002207E0184600F008F824F812009B1C08
:101CA000501C82B2AA42F5DB30BD0146088870475D
:101CB0002DE9F05F80468A461746B8F1006F02D3DF
:101CC0003348804501D3BDE8F09FFFF75BF8A8F1EA
:101CD000006B4FEADB25CBF34909C9F58064A742C5
:101CE00000DC3C464DE04FF0006101EBC5204A149A
:101CF0002849FFF7C9FF00260BE009EB060025493C
:101D000031F810004FF6FF71884200D003E0701CDC
:101D100086B2A642F1DB00BFA6421BDA4FF000619B
:101D200001EBC520FEF7C4FF002608E03AF81600D4
:101D300006EB0901174A22F81100701C86B2A64270
:101D4000F4DB4FF0006101EBC5204A14114900F0AB
:101D500023F804E022465146404600F01DF8A74211
:101D600000D10FE06D1C4FF000090AEB440AA044BB
:101D7000381B87B2B7F5806F02DD4FF4806400E056
:101D80003C46B0E700BFFEF7D3FF00BF9BE7000073
:101D9000000008087E0000202DE9F04105460E46AF
:101DA0001746002407E036F814102846FEF7CAFF4D
:101DB000AD1C601C84B2BC42F5DBBDE8F08170470D
:101DC0000648006800F58060054A1268811AC81745
:101DD00001EB90508012A1EB802070474000002062
:101DE000440000200146114A1268501CC21700EB43
:101DF00092529212A0EB82220D4B1B689A420FD096
:101E00000C480A4A12688154084A1268501CC217CA
:101E100000EB92529212A0EB8222044B1A6002E075
:101E20000120054A1070012070470000400000208A
:101E3000440000207E240020480000202DE9FC41C1
:101E400005460E46012E0AD12C4604E014F8010B7B
:101E50000D490968884720780028F7D111E086B934
:101E60006C462F683A4609A12046FEF7D3F904E0F4
:101E700014F8010B04490968884720780028F7D135
:101E800000BFBDE8FC810000500000202564000078
:101E900070B504460D4629462046FFF7CFFF0D20BA
:101EA0000349096888470A2001490968884770BDC5
:101EB000500000200C4800680C4A1268904202D181
:101EC0004FF0FF3070470A48074A1268815C064AA3
:101ED0001268501CC21700EB92529212A0EB8222A1
:101EE000014B1A600846EDE7440000204000002046
:101EF0007E24002010B500F001F810BD0CB50020C4
:101F0000019000903348006840F480303149086007
:101F100000BF3048006800F4003000900198401C79
:101F20000190009818B90198B0F5A06FF1D1294837
:101F3000006800F4003010B10120009001E00020A2
:101F400000900098012843D12348006840F0100019
:101F5000214908600846006820F003000860084630
:101F6000006840F0020008601A484068194948605B
:101F70000846406848600846406840F48060486011
:101F80000846406820F47C1048600846406840F4E9
:101F9000E81048600846006840F08070086000BFA4
:101FA0000C48006800F000700028F9D0094840682B
:101FB00020F00300074948600846406840F00200EE
:101FC000486000BF0348406800F00C000828F9D1C1
:101FD0000CBD0000001002400020024070B5044615
:101FE0000D462046FEF7C1FA0646A5550021701C95
:101FF000215470BD70B504460E4631462046FEF7AA
:102000007EFA054615B94FF0FF3070BD281BFCE77E
:1020100010B504462046FEF7A8FA10BD2DE9F041A0
:1020200007460E4614461D46AC4203DD4FF0FF3016
:10203000BDE8F0813046FEF798FAA84202D24FF090
:10204000FF30F5E7281B421C31193846FEF7F5FA38
:102050000021281B401C39540120E9E7042808D13D
:102060004FF0E021096941F004014FF0E0221161D5
:1020700007E04FF0E021096921F004014FF0E02270
:10208000116170477047000010B51348006840F0B8
:1020900001001149086008464068104908400E498F
:1020A0004860084600680E4908400B490860084629
:1020B000006820F4802008600846406820F4FE0094
:1020C00048604FF41F008860FFF714FF4FF0006076
:1020D0000449086010BD0000001002400000FFF835
:1020E000FFFFF6FE08ED00E010B50121880700F0C3
:1020F0003BF828B10121880700F027F801F070FBB8
:1021000010BD0EB501210846FFF774FC40F2E73020
:10211000ADF804004720ADF800000020ADF806003F
:10212000ADF8020069464FF0804000F037F8012119
:10213000880700F00AF801221146900700F025F800
:102140000121880700F004F80EBDCA4302827047DF
:1021500021B1028842F00102028004E002884FF6B9
:10216000FE731A400280704730B5024600200023FB
:102170000024158A05EA0103958905EA010413B1D3
:102180000CB1012000E0002030BD1AB183890B435F
:10219000838102E083898B43838170470022028818
:1021A0001D4B98420ED01D4B98420BD0B0F1804F82
:1021B00008D01B4B984205D01A4B984202D01A4BBC
:1021C000984204D14FF68F731A404B881A43174B2D
:1021D000984207D0164B984204D04FF6FF431A405E
:1021E000CB881A4302808B8883850B8803850A4B32
:1021F00098420BD0094B984208D00E4B984205D01C
:102200000D4B984202D00D4B984201D10B7A0386B8
:102210000123838270470000002C014000340140FC
:102220000004004000080040000C00400010004086
:1022300000140040004001400044014000480140BB
:1022400010B5044600BF4021044800F01BF90028E7
:10225000F9D02146014800F0E2F910BD00380140F4
:1022600070B586B004460E46154601218803FFF777
:10227000D1FB01210420FFF7CDFB4FF40070ADF836
:10228000040003208DF8060018208DF8070001A92E
:102290001E48FFF70FFA4FF48060ADF804000420E9
:1022A0008DF8070001A91948FFF704FA25208DF8D9
:1022B0000000F0B28DF80100E8B28DF802000120B4
:1022C0008DF803006846FFF751FB02940020ADF83B
:1022D0000C00ADF80E00ADF81000ADF814000C20A5
:1022E000ADF8120002A90A4800F028F9012240F2D4
:1022F0002551074800F0FDF80121054800F0B6F827
:102300004021034800F09AF806B070BD0008014073
:102310000038014010B540F22551084800F0BFF8E0
:1023200058B140F22551054800F091F8034800F0FB
:1023300071F9C4B22046FFF755FD10BD00380140C9
:1023400070B586B004460E46154601214804FFF7D5
:1023500051FB01210420FFF75DFB0420ADF80400D0
:1023600003208DF8060018208DF8070001A91E48EB
:10237000FFF7A0F90820ADF8040004208DF807004D
:1023800001A91948FFF796F926208DF80000F0B250
:102390008DF80100E8B28DF8020001208DF80300ED
:1023A0006846FFF7E3FA02940020ADF80C00ADF8A0
:1023B0000E00ADF81000ADF814000C20ADF81200BE
:1023C00002A90A4800F0BAF8012240F22551074854
:1023D00000F08FF80121054800F048F8402103483B
:1023E00000F02CF806B070BD000801400044004029
:1023F00010B540F225510E4800F051F8B0B140F24E
:1024000025510B4800F023F8094800F003F9C4B245
:1024100008480088B0F5806F08DA07480549098840
:10242000445404480088401C0249088010BD000044
:1024300000440040220000207E18002001F40072B9
:10244000B2F5007F00D100BFCA430280704710B5CB
:102450000022002340F66A14A14200D100BF0A12F4
:1024600001249440A3B2DC43048010BD21B18289D1
:1024700042F40052828104E082894DF6FF731A40D3
:102480008281704702460020B1F5007F00D100BF75
:1024900013880B400BB1012000E00020704770B59D
:1024A0000246002400230025002040F66A16B142AF
:1024B00000D100BFC1F3421501F01F03012606FA47
:1024C00003F3012D02D19689334006E0022D02D19B
:1024D000168A334001E0968A33400C12012606FA30
:1024E00004F41688344013B10CB1012000E0002040
:1024F00070BDF0B50346002400260025002040F6FC
:102500006A17B94200D100BF1846C1F3421401F066
:102510001F06012707FA06F5012C01D10C3004E053
:10252000022C01D1103000E014301AB107682F439B
:10253000076002E00768AF430760F0BD2DE9F04790
:1025400086B005460E460024A24600BFA1460027DD
:10255000B08900B100BF2F462C8A4CF6FF700440B2
:10256000F08804432C82AC894EF6F3100440B08806
:1025700031890843718908430443AC81AC8A4FF622
:10258000FF400440B0890443AC8201A8FFF752FA2F
:102590001F48874202D1DDF810A001E0DDF80CA051
:1025A000A88900F4004040B10AEBCA0000EB0A1011
:1025B00031684900B0FBF1F807E00AEBCA0000EB14
:1025C0000A1031688900B0FBF1F86420B8FBF0F024
:1025D00004012009642101FB1089A88900F400404E
:1025E00040B1322000EBC900B0FBF1F000F0070071
:1025F000044308E0322000EB09106421B0FBF1F045
:1026000000F00F0004432C8106B0BDE8F087000005
:102610000038014001468888C0F308007047C1F3C4
:10262000080282807047000070B506460C461546C9
:102630000448046004480560304602490968884738
:1026400070BD00004C0000205000002000BFFEE7DD
:1026500010B50446214610A0FDF7D0FD240300F07C
:1026600017F900F0AFF800200D4908602020FFF7AF
:1026700095FAC4F30740FFF791FAC4F30720FFF778
:102680008DFAE0B2FFF78AFA01200649C1F8AC01E1
:1026900000F098F810BD000066653A25780D0A0034
:1026A000AC0121420000214208B501210420FFF7BE
:1026B000B1F94FF40060ADF8000010208DF8030070
:1026C00003208DF8020069460A48FEF7F3FF4FF435
:1026D00000610848FFF7C4F8012007490860FFF7C8
:1026E00013FA0020FFF784FA00F032F8034908805B
:1026F00008BD000000080140AC0121421800002084
:102700002DE9F04106460C46174600200F490860A7
:102710000320FFF743FAC4F30740FFF73FFAC4F37F
:102720000720FFF73BFAE0B2FFF738FA002505E093
:10273000FF20FFF733FA7055681C85B2BD42F7DB06
:10274000012002490860BDE8F0810000AC0121428F
:1027500010B5002400200E4908609020FFF71EFAF3
:102760000020FFF71BFA0020FFF718FA0020FFF700
:1027700015FAFF20FFF712FA44EA0024FF20FFF7C2
:102780000DFA044301200349C1F8AC01204610BDF5
:10279000AC0121420000214210B50024002007496D
:1027A00008600520FFF7FAF9FF20FFF7F7F9044664
:1027B00001200349C1F8AC01204610BDAC01214203
:1027C0000000214210B500BFFFF7E6FF00F0010056
:1027D0000028F9D110BD00002DE9F05F81460F46B9
:1027E0001646DFF8A8B04FEA1738C7F30B0ACAF548
:1027F0008054A64200DC344644E04FEA08314FF4EE
:1028000080525846FFF77CFF002508E00AEB0500E0
:102810001BF80000FF2800D003E0681C85B2A54229
:10282000F4DB00BFA54216DA4046FFF711FF002592
:1028300007E019F8050005EB0A010BF80100681C18
:1028400085B2A542F5DB4FEA08314FF48052584675
:1028500000F02EF804E022463946484600F028F8F9
:10286000A64200D10FE008F101084FF0000AA14490
:102870002744301B86B2B6F5805F02DD4FF48054EA
:1028800000E03446B9E700BFBDE8F09F7E080020B5
:1028900010B50020044908600620FFF77FF90120E9
:1028A0000249C1F8AC0110BDAC0121420000214237
:1028B0002DE9F04107460E461446F0B2C0F580758A
:1028C000AC4200DC254612E02A463146384600F08C
:1028D00013F8AC4200D10BE02F442E44601B84B2AD
:1028E000B4F5807F02DD4FF4807500E02546EBE70C
:1028F00000BFBDE8F08100002DE9F04106460C461E
:102900001746FFF7C5FF00200F4908600220FFF7B8
:1029100045F9C4F30740FFF741F9C4F30720FFF777
:102920003DF9E0B2FFF73AF9002504E0705DFFF7EA
:1029300035F9681C85B2BD42F8DB01200249086008
:10294000FFF740FFBDE8F081AC01214230380A2892
:1029500001D20120704700207047014600BF704738
:1029600000B5014600F0BAFB024600BF00F0B6FB1E
:10297000801A8842FAD900BD10B56FF00400FFF745
:102980006DFB0A4800680A49B0FBF1F0094908707C
:102990000846007800EB4001C1EBC0104FF6FF7114
:1029A00001EAC0000449088010BD000004000020B6
:1029B00000127A001A0000201C0000200146114A73
:1029C00012884A434FF0E0235A6100229A611A4666
:1029D000126942F001021A6100BF4FF0E022106953
:1029E00000F001021AB100F48032002AF5D04FF055
:1029F000E022126922F001024FF0E0231A61002266
:102A00009A6170471C00002010B500F0E2FC012123
:102A100003A0FFF73DFA642102A000F05DFC10BDA9
:102A2000415400004F4B000070B5064600F0D1FC49
:102A3000012111A0FFF72CFA642212A1124800F024
:102A40009FFC0DA11048FFF7D5FA0446601C80B129
:102A500009A0FFF7DDFAC01C04440B48FDF785FD13
:102A6000C51E2B46224608493046FFF7D7FA0120FB
:102A700070BD0020FCE7000041542B4349465352EF
:102A8000000000002A0000007E28002010B500F0A1
:102A9000A0FC012104A0FFF7FBF942F2107105A090
:102AA00000F01AFC10BD000041542B434949435229
:102AB000000000004F4B00003EB504460CB900205A
:102AC0003EBD00F086FC01210AA0FFF7E1F9642079
:102AD00001AB0AA20AA100900BA000F013FC05466E
:102AE0002DB101A8FDF7FEFC20700120E8E70020D1
:102AF000E6E7000041542B43535100002C00000036
:102B00002B4353513A2000004F4B000000B5A1B0B9
:102B1000FEF780F807A101A8FDF77CFB012101A8C1
:102B2000FFF7B6F94FF47A7105A000F0D5FB21B09C
:102B300000BD000041542B465450515549540000EB
:102B40004F4B0D0A0000000000BF054A128802F03A
:102B50004002002AF9D0C2B2014B1B1D1A807047F7
:102B60000044004010B50446206807490840B0F111
:102B7000005F08D16068054908602068FDF718FB10
:102B800002480068804710BD0000FE2F3C00002076
:102B900070B505460E461446C4F34F02314628462A
:102BA000FFF772F870BD00002DE9F05F06460F4692
:102BB00090460024B3463D46A1461CE068784FEAA3
:102BC000002A287850441FFA80FAAD1C2046611C68
:102BD0008CB20E4921F810A0B4F5806F07D1002403
:102BE0004FF480625846FFF763F80BF5006B09F16C
:102BF00002001FFA80F9C145E0D324B122460349FF
:102C00005846FFF755F8BDE8F09F00007E1C0020F5
:102C1000ADF5826D0020CDF80C040025814600261C
:102C2000824683460027FEF78CFEAA4AAA494FF443
:102C3000E130FFF7F9FC012200214FF4E130FFF70A
:102C40007FFBFFF75EFAFFF797FEFFF72DFDFEF71C
:102C500017FC4FF47A70FFF783FEA0A0FDF7CEFAC1
:102C600015E0A1A0FDF7CAFA4FF4FA70FFF7A6FE2F
:102C7000A3A0FDF7C3FA4FF4FA70FFF79FFEA44834
:102C8000006808B9012000E00020A1490860FFF7B2
:102C90005FFD4EF615718842E3D101E0FEF71CFEA0
:102CA0009C4A42F2B3219CA0FEF7E4FD0028F5D037
:102CB0009CA0FDF7A3FAA248406800F07F40B0F165
:102CC000006F26D172B6002240F225519D48FFF7D1
:102CD00010FC00219B48FFF7C9FB002240F2255160
:102CE0009948FFF706FC00219748FFF7BFFB002239
:102CF00001218807FFF749FA00214FF08040FFF7D4
:102D000027FA00219148FEF787FF8D48FFF72AFF39
:102D100002E08FA0FDF772FADAE0944800880028FC
:102D200031D092490988DDF80C04884227D18F48B8
:102D300005880020CDF80C048C4908808CA0FDF794
:102D40005DFA29468FA0FDF759FA93A0FDF756FAD0
:102D50002A4600219748FFF73FFD97A0FDF74EFA5E
:102D60004FF480619348FDF71FFC0A220021994827
:102D7000FFF7C6FC974998A0FDF740FA03E07B48AF
:102D80000088CDF80C0408F1010000F0FF080A20CB
:102D9000FFF714FEB8F11E0F10D15D48006808B9A6
:102DA000012000E000205A4908604FF00008B9F106
:102DB000000F03D0A9F1010000F0FF096F24042CDB
:102DC0004FD1002D48D02E4688A0FDF717FA0422D7
:102DD00011460DF58160FFF793FC9DF80804009003
:102DE0009DF809349DF80A249DF80B1484A0FDF782
:102DF00005FA9DF80B0408282AD100274FEA872AF4
:102E000020E0B6F5806F02DCB346002603E04FF405
:102E1000806BA6F58066791C81A0FDF7EFF91FFA9B
:102E20008BF2514602A8FFF76BFC45490AEB010003
:102E30005A4602A9FFF7B8FE4FF4806102A8FDF7D9
:102E4000D5FB7F1C002EDCD17CA0FDF7D7F906E076
:102E50007EA0FDF7D3F902E081A0FDF7CFF94FF096
:102E60000709032C0AD125B183A0FDF7C7F9002576
:102E700002E085A0FDF7C2F94FF00709022C12D13C
:102E800028A0FDF7BBF92E48406800F07F40B0F164
:102E9000006F03D12A48FFF765FE02E02CA0FDF782
:102EA000ADF94FF00709012C12D17DA0FDF7A6F96D
:102EB0008248406800F07F40B0F1005F03D17F4856
:102EC000FFF750FE02E07EA0FDF798F94FF00709EA
:102ED00023E70000412200086518000849415020FE
:102EE000544553540D0A00005732355133322043B4
:102EF0006865636B204661696C6564210D0A00009A
:102F0000506C6561736520436865636B210D0A0031
:102F1000948121420000002034372E39322E38317E
:102F20002E390000BFAACABCD6B4D0D0464C4153FB
:102F300048D3C3BBA7B4FAC2EB21210D0A0000009D
:102F400000500008003801400044004000380040B4
:102F5000B7C7464C415348D3A6D3C3B3CCD0F22C09
:102F6000CEDEB7A8D6B4D0D0210D0A0022000020B2
:102F7000D3C3BBA7B3CCD0F2BDD3CAD5CDEAB3C9B6
:102F8000210D0A00B4FAC2EBB3A4B6C83A256442D4
:102F9000797465730D0A000053746172742057725E
:102FA00069746520573235513132382E2E2E2E0D50
:102FB0000A0000007E180020573235513132382087
:102FC00057726974652046696E6973686564210D7E
:102FD0000A00000074000020666C6173685F62750F
:102FE00066203D2025730D0A00000000BFAACABC60
:102FF000B8FCD0C2B9CCBCFE2E2E2E0D0A000000AB
:10300000617070636865636B203D202530327825E0
:1030100030327825303278253032780D0A000000C1
:103020005374617274205265616420573235513196
:1030300032382E2E2E2E2025640D0A00B9CCBCFE6F
:10304000B8FCD0C2CDEAB3C9210D0A00B7C7464CBF
:10305000415348D3A6D3C3B3CCD0F2210D0A00000C
:10306000C3BBD3D0BFC9D2D4B8FCD0C2B5C4B9CCCD
:10307000BCFE210D0A000000B9CCBCFEC7E5B3FDC3
:10308000CDEAB3C9210D0A00C3BBD3D0BFC9D2D486
:10309000C7E5B3FDB5C4B9CCBCFE210D0A000000E4
:1030A000BFAACABCD6B4D0D05352414DD3C3BBA7DC
:1030B000B4FAC2EB21210D0A00000000001000202C
:1030C000B7C75352414DD3A6D3C3B3CCD0F22CCE05
:1030D000DEB7A8D6B4D0D0210D0A000001480068A0
:1030E00070470000540000203EB504460CB9002093
:1030F0003EBD00F06EF901210AA0FEF7C9FE642072
:1031000001AB0BA20CA100900AA000F0FBF8054651
:103110002DB101A8FDF7E6F920700120E8E70020B5
:10312000E6E7000041542B43474154543F00000060
:103130000D0A0D0A4F4B00002B43474154543A20CF
:10314000000000007FB5054615B9002004B070BD31
:1031500000F03FF901210AA0FEF79AFE642001ABBE
:103160000AA20CA100900AA000F0CCF804462CB1F1
:1031700001A92846FDF7D5F90120E7E70020E5E79A
:1031800041542B4350494E3F000000000D0A0D0AE8
:103190004F4B00002B4350494E3A20007CB504466B
:1031A0000D4604B10DB900207CBD00F012F90121DB
:1031B0000BA0FEF76DFE642001AB0CA20DA10090E8
:1031C0000BA000F09FF806463EB10020207001A839
:1031D000FDF788F928700120E6E70020E4E7000009
:1031E00041542B435245473F000000000D0A0D0A91
:1031F0004F4B00002C0000002DE9FE4F80468A4610
:1032000091461D460C9E0024A346FFF767FF074624
:1032100058E053E0FEF74EFEC2B22046641C2D4932
:103220000A540020085541462A48FEF7E3FE401C98
:10323000002843D021462748FDF7B6F9002438E09E
:1032400033E0FEF737FEC2B22046641C21490A541F
:103250000020085551461F48FEF7CCFE8346401C0F
:1032600018B3ABF1010300221A496846FEF7D6FEF7
:103270006846FDF737F92860002411E00CE0FEF7FE
:1032800019FEC2B22046641C09F800202868A0423A
:1032900002DC0120BDE8FE8FFEF792FD0028EEDC87
:1032A000FFF71CFFC01BB042E8D3FEF789FD0028E2
:1032B000C7DCFFF713FFC01BB042C1D3FEF780FD90
:1032C0000028A7DCFFF70AFFC01BB042A1D30020F3
:1032D000E0E700007E28002070B504460D46FDF7AB
:1032E00099FC2A462146064800F04AF8214604483F
:1032F000FEF780FE401C08B1012070BD0020FCE7F5
:103300007E2800202DE9F04706460F4614469846D1
:10331000DDF820A0FDF77EFC52463146174800F04C
:103320002FF831461548FEF765FE401C10B33946AC
:103330001248FEF75FFE054621461048FEF75AFE8A
:1033400081461CB90D48FDF710F98146681C80B113
:1033500009F1010068B13846FEF75AFE0544A9F1AB
:1033600001032A4605494046FEF758FE0120BDE804
:10337000F08700BFFDF74EFC0020F8E77E28002014
:103380002DE9F04106460F461546FFF7A7FE804699
:1033900015E009E0FEF78EFDC4B204B904E0214651
:1033A0003046FEF71BFE00BFFEF70AFD0028F1DCE9
:1033B00039463046FEF71EFE401C00B105E0FFF71F
:1033C0008DFEA0EB0800A842E3D300BF0120BDE8BA
:1033D000F08110B5FDF724FC10BD000038B504469F
:1033E0000094FFF7F6FF012105A0FEF727FD00215D
:1033F0006846FEF74DFD642104A0FFF76DFF38BD60
:1034000041542B4349504D4F44453D004F4B000024
:1034100038B504460094FFF7DCFF012106A0FEF753
:103420000DFD00216846FEF733FD41F2883105A00D
:10343000FFF752FF38BD000041542B43504F574413
:103440003D0000004E4F524D414C20504F574552C9
:1034500020444F574E00000010B50446FFF7B9FF57
:10346000012108A0FEF7EAFC01212046FEF7E6FC58
:10347000012106A0FEF70CFD642105A0FFF72CFF3B
:1034800010BD000041542B435354543D2200000012
:103490004F4B000010B5A0B00446FFF79AFF22463C
:1034A00007A16846FCF7B6FE01216846FEF7F0FC6E
:1034B0004FF47A7106A0FFF70FFF20B010BD000097
:1034C00041542B4654504349443D256400000000BC
:1034D0004F4B0D0A00000000F0B5A1B004460F46A6
:1034E0001546FDF797FB012C0FD122461CA101A820
:1034F000FCF790FE012101A8FEF7CAFC47F230510B
:103500001BA0FFF7E9FE21B0F0BD022C23D13B4602
:1035100022461BA101A8FCF77DFE012101A8FEF7B0
:10352000B7FC21021A48FDF73FF84FF47A702B469A
:10353000174A12A1009017A0FFF75EFE0646144B33
:10354000314617A02A68FCF759FE012E01D101204F
:10355000D9E70020D7E71EA0FCF750FE0020D2E7F5
:1035600041542B4654504745543D2564000000000B
:103570002B4654504745543A20312C310D0A000057
:1035800041542B4654504745543D25642C25640036
:103590007E2A00202B4654504745543A20322C00B6
:1035A000726574203D2025642C20726563766C65FD
:1035B0006E7468203D2025642C206674705F7265EF
:1035C00063765F64617461203D2025730000000014
:1035D000734154465450474554206D6F64652069CB
:1035E00073206572726F72210D0A000010B5A0B0D1
:1035F0000446FDF70FFB224607A16846FCF70AFECA
:1036000001216846FEF744FC4FF47A7107A0FFF7EA
:1036100063FE20B010BD000041542B465450474576
:10362000544E414D453D2225732200004F4B0D0A5B
:103630000000000010B5A0B00446FDF7EBFA2246EA
:1036400007A16846FCF7E6FD01216846FEF720FC6D
:103650004FF47A7107A0FFF73FFE20B010BD0000C5
:1036600041542B465450474554504154483D22251F
:10367000732200004F4B0D0A0000000010B5A0B0EF
:103680000446FDF7C7FA224607A16846FCF7C2FDCB
:1036900001216846FEF7FCFB4FF47A7106A0FFF7A4
:1036A0001BFE20B010BD000041542B465450505713
:1036B0003D222573220000004F4B0D0A0000000040
:1036C00010B5A0B00446FDF7A5FA224607A168464A
:1036D000FCF7A0FD01216846FEF7DAFB4FF47A7192
:1036E00006A0FFF7F9FD20B010BD000041542B46A5
:1036F0005450534552563D22257322004F4B0D0A1C
:103700000000000010B5A0B00446FDF783FA224681
:1037100007A16846FCF77EFD01216846FEF7B8FB6D
:103720004FF47A7106A0FFF7D7FD20B010BD00005E
:1037300041542B465450554E3D2225732200000023
:103740004F4B0D0A00000000F0B58BB004460D464B
:1037500016461F46FFF73DFE2B46224607A103A84B
:10376000CDE90067FCF756FD012103A8FEF790FBA9
:10377000642109A0FFF7B0FD0BB0F0BD41542B53FD
:10378000415042523D25642C25642C222573222C65
:1037900022257322000000004F4B000030B589B095
:1037A00004460D46FFF715FE2B46224607A101A849
:1037B000FCF730FD012101A8FEF76AFB41F28831D8
:1037C00006A0FFF789FD09B030BD000041542B531E
:1037D000415042523D25642C256400004F4B0000AF
:1037E00002480068401C01490860704754000020EE
:1037F00010B500290AD00878002807D00548784479
:10380000FCF746FF002801D0002010BD0248784494
:1038100010BD00007A000000720000003031323329
:1038200034353637383941424344454640305800F4
:103830003031323334353637383961626364656626
:103840004030780004000008000000000000000282
:10385000000100001000000088390008000000206E
:103860007400000028010008FC39000874000020E2
:103870008C3C0000440100081001000043000000DF
:10388000F8FFFFFF00404040404040404040414181
:103890004141414040404040404040404040404025
:1038A00040404040400502020202020202020202BF
:1038B00002020202022020202020202020202002BC
:1038C000020202020202909090909090101010104C
:1038D00010101010101010101010101010101010E8
:1038E000020202020202888888888888080808087C
:1038F0000808080808080808080808080808080848
:10390000020202024000000000000000000000006F
:1039100000000000000000000000000000000000A7
:103920000000000000000000000000000000000097
:103930000000000000000000000000000000000087
:103940000000000000000000000000000000000077
:103950000000000000000000000000000000000067
:103960000000000000000000000000000000000057
:103970000000000000000000000000000000000047
:1039800000000000000000000000000000A24A0447
:1039900000000000000000000102030406070809FF
:1039A00017EF000000000000000000000000000011
:1039B00000000000010203040102030406070809D5
:1039C00002040608000000000000000000000000E3
:1039D00000000000000000000000000000000000E7
:1039E00000000000000000000000000000000000D7
:0C39F000000000000000000000000000CB
:04000005080000ED02
:00000001FF
